:020000040800F2
:10000000F8050020A10100080D3900089D36000800
:100010000939000869060008B94500080000000019
:10002000000000000000000000000000653C000827
:10003000150800080000000085390008BD3C0008D4
:10004000BB010008BB010008BB010008BB010008A0
:10005000BB010008BB010008BB010008BB01000890
:10006000BB010008BB01000819080008BB0100081B
:100070006D060008BB010008BB010008BB010008B9
:10008000BB010008BB010008BB010008BB01000860
:10009000BB010008BB010008BB01000825080008DF
:1000A000BB010008BB010008BB010008BB01000840
:1000B000BB010008BB010008BB010008BB01000830
:1000C000BB010008BB010008BB010008BB01000820
:1000D000BB010008BB010008BB010008A9450008DE
:1000E000BB010008BB010008BB010008BB01000800
:1000F000BB010008BB010008BB010008BB010008F0
:10010000BB010008BB010008BB010008BB010008DF
:10011000BB010008BB010008D93C0008BB01000876
:10012000BB010008BB010008BB010008BB010008BF
:10013000BB010008BB010008BB010008BB010008AF
:10014000BB010008BB010008BB010008BB0100089F
:10015000BB010008BB010008BB010008BB0100088F
:10016000BB010008BB010008BB010008BB0100087F
:10017000BB010008BB010008BB0100080000000033
:10018000BB010008BB010008DFF810D000F05AFAEC
:1001900000F05CF80048004705540008F80500200E
:1001A0000648804706480047FEE7FEE7FEE7FEE711
:1001B000FEE7FEE7FEE7FEE7FEE7FEE7C53C0008D8
:1001C000890100082DE9F05F0546002092469B4614
:1001D00088460646814640241BE02846414647465D
:1001E000224600F062F953465A46C01A914110D394
:1001F00011461846224600F049F92D1A67EB01080E
:100200004F4622460120002100F040F917EB00097B
:100210004E41201EA4F10104DFDC484631462A4647
:100220004346BDE8F09FD2B201E000F8012B491E21
:10023000FBD270470022F6E710B513460A46044683
:100240001946FFF7F0FF204610BD000070B5054CC1
:10025000054D04E02046016808448047241DAC4257
:10026000F8D170BDFC5C0008045D00082DE9FE4F6C
:1002700081EA030404F0004421F0004100944FF0AF
:10028000000B23F0004350EA01045ED052EA03045D
:100290005BD0C3F30A54C1F30A552C44A4F2F334DF
:1002A0000194A0FB0254C1F3130141F48011C3F384
:1002B000130343F4801301FB024400FB034E840A42
:1002C000970A44EA815447EA8357A4FB07680295DA
:1002D0008D0A05FB07854FEA932C04FB0C54270578
:1002E000029D4FEA065847EA1637B5EB08056EEB54
:1002F000070C870E920E47EA811742EA8312A7FB8A
:100300000201B6EB0B0164EB00042B0D43EA0C3346
:100310005E1844EB1C50DA465146E7FB0201C5F378
:1003200013044FEA0B3343EA14534FEA0432019C9F
:1003300043EA0603A4F10C040294009CCDE900B446
:1003400000F032F903B0BDE8F08F00200146F9E774
:100350002DE9F04D81EA030404F0004B21F0004543
:1003600014464FF0000A23F0004150EA050220D065
:1003700054EA01021DD0C5F30A570246C5F3130320
:10038000C1F31300C1F30A5640F4801543F48013FF
:10039000A7EB0608101BD64608F2FD3873EB0500E4
:1003A00002D308F1010801E092185B41B8F1000F97
:1003B00003DA00200146BDE8F08D00204FF48011E3
:1003C000064684460EE0171B73EB050705D3121B88
:1003D00063EB050306434CEA010C49084FEA300081
:1003E00092185B4150EA0107EDD152EA030012D0A6
:1003F00082EA040083EA0501084305D0101BAB41E3
:1004000006D20122002306E000224FF0004302E062
:100410006FF0010253101AEB06004CEB085110EB81
:100420000A0041EB0B01BDE8F04D00F0AEB800F062
:10043000004230F000400AD0C10D01F56071C0F3F8
:10044000160042EA0151C2084007114370470020DC
:100450000146704701F0004330B421F0004150EAFA
:10046000010206D00A0DA2F56072C1F31301002A41
:1004700002DC30BC00207047440F44EAC104C100D4
:10048000E01830BC00EBC25000F01FB8202A04DB9B
:10049000203A00FA02F1002070479140C2F1200397
:1004A00020FA03F3194390407047202A04DB203AD6
:1004B00021FA02F00021704721FA02F3D040C2F184
:1004C000200291400843194670470029A8BF704791
:1004D000401C490008BF20F00100704710B4B0FA7A
:1004E00080FC00FA0CF050EA010404BF10BC704715
:1004F00049B1CCF1200421FA04F411FA0CF118BF2F
:10050000012121430843A3EB0C01CB1D4FEA0061FD
:100510004FEA102042BF002010BC704700EBC350D0
:1005200010440029A4BF10BC7047401C490008BFFC
:1005300020F0010010BC7047F0B400F0004221F040
:10054000004120F00040CE0DC30DC1F3160141F46F
:100550000001C0F316004C42154640F40000761E20
:1005600009E010EB440002D582F00042404288428C
:10057000F7D840005B1EB342F9DA18B1F0BC002195
:10058000FFF7ACBF2846F0BC704710B5141E73F1DE
:10059000000408DA401C41F1000192185B411A4343
:1005A00001D120F0010010BD2DE9F04D92469B468F
:1005B00011B1B1FA81F202E0B0FA80F22032904635
:1005C000FFF764FF04460F4640EA0A0041EA0B01C8
:1005D00053465A46084313D0114653EA010019D036
:1005E000C8F140025046FFF760FF05460E465046F0
:1005F00059464246FFF74AFF084305D0012004E070
:1006000020463946BDE8F08D0020054346EAE076F5
:100610002C4337430A986305E40AA0EB0800002244
:10062000FD0A44EA47540A3002D500200146E9E7B2
:10063000010510196941DDE9084500196941BDE866
:10064000F04DA2E7064C074D06E0E06840F00103DC
:1006500094E8070098471034AC42F6D3FFF798FDB2
:10066000DC5C0008FC5C0008FFE7FEE780B540F2B8
:100670001800C2F2000000F077F980BD82B001904E
:100680000198007810384AF6AB21CAF6AA21A0FBDF
:10069000011000090090009945F6D440C0F6000012
:1006A000405C0199C8650098042807D3FFE70199C9
:1006B0000868042262F30900886506E00199086869
:1006C00040F2FF3290438865FFE70198806D02B0E9
:1006D0007047000086B0059000208DF81300059843
:1006E000806A03900598806910BBFFE70398029029
:1006F00003281BD80299DFE801F0020D02180598C3
:1007000090F82F00C00720B1FFE701208DF81300FB
:10071000FFE70CE00598C06AB0F1C07F04D1FFE7A5
:1007200001208DF81300FFE701E000E0FFE745E05E
:1007300005988069B0F5005F25D1FFE70398019027
:1007400003281ED80199DFE801F0020602110120FA
:100750008DF8130016E0059890F82F00C00720B11F
:10076000FFE701208DF81300FFE70BE00598C06A52
:10077000B0F1C07F04D1FFE701208DF81300FFE73F
:1007800000E0FFE719E003980090032804D3FFE797
:100790000098032804D00EE001208DF813000BE030
:1007A000059890F82F00C00720B1FFE701208DF8D1
:1007B0001300FFE700E0FFE7FFE7FFE79DF8130006
:1007C00006B0704784B003900291019200930398A1
:1007D0000168086820F4802008600098039909687F
:1007E000486003988068402809D1FFE70198039981
:1007F00009688860029803990968C86008E002984F
:10080000039909688860019803990968C860FFE73F
:1008100004B070477047000080B5102000F082FBE4
:1008200080BD000080B5202000F07CFB80BD000072
:1008300072B6FFE7FEE7000080B584B00290029830
:10084000806D019000F07EFD0090029890F83500D8
:1008500002280DD0FFE7029980204865FFE7029942
:10086000002081F83400FFE701208DF80F0055E0EB
:1008700002980168086820F0160008600298016874
:10088000486920F0800048610298006C20B9FFE7B9
:100890000298806C38B1FFE702980168086820F080
:1008A00008000860FFE702980168086820F001006E
:1008B0000860FFE7029800680068C007C8B1FFE75A
:1008C00000F040FD0099401A062811D3FFE7029975
:1008D000202048650299032081F83500FFE702993E
:1008E000002081F83400FFE703208DF80F0015E0A9
:1008F000E0E70298C16D3F20884001998860029925
:10090000012081F83500FFE70299002081F83400CA
:10091000FFE7FFE700208DF80F00FFE79DF80F00CD
:1009200004B080BD82B00090009890F83500022895
:1009300007D0FFE700998020486501208DF8070067
:100940000EE00099052081F83500009801680868DC
:1009500020F001000860FFE700208DF80700FFE7A6
:100960009DF8070002B0704780B586B00590002062
:10097000039040F20400C2F20000006848F2B51192
:10098000C1F64E31A0FB0110800A02900598806DDF
:10099000019001980068049004980599C96DC840B9
:1009A000000700281AD5FFE705980068006840078F
:1009B000002812D5FFE705980168086820F00400B8
:1009C00008600598C16D08208840019988600599E4
:1009D000486D40F001004865FFE7FFE7049805997E
:1009E000C96DC840C007A0B1FFE70598006840691D
:1009F000000600280CD5FFE70598C16D012088404E
:100A0000019988600599486D40F002004865FFE74C
:100A1000FFE704980599C96DC8404007002814D520
:100A2000FFE7059800680068800700280CD5FFE7FD
:100A30000598C16D04208840019988600599486D2A
:100A400040F004004865FFE7FFE704980599C96D89
:100A5000C840C006002847D5FFE705980068006831
:100A6000000700283FD5FFE70598C16D102088409A
:100A700001998860059800680068400300281AD52D
:100A8000FFE70598006800680003002809D4FFE725
:100A90000598006C20B1FFE70598016C8847FFE7D7
:100AA00008E00598806C20B1FFE70598816C8847C5
:100AB000FFE7FFE716E0059800680068C00500281A
:100AC00007D4FFE705980168086820F0080008606F
:100AD000FFE70598006C20B1FFE70598016C884797
:100AE000FFE7FFE7FFE7FFE704980599C96DC840F6
:100AF0008006002840F18D80FFE7059800680068B7
:100B0000C006002840F18480FFE70598C16D2020D1
:100B1000884001998860059890F83500052834D1FF
:100B2000FFE705980168086820F01600086005983E
:100B30000168486920F0800048610598006C20B980
:100B4000FFE70598806C38B1FFE7059801680868F1
:100B500020F008000860FFE70598C16D3F2088403D
:100B6000019988600599012081F83500FFE7059912
:100B7000002081F83400FFE70598006D20B1FFE701
:100B80000598016D8847FFE77BE0059800680068DD
:100B9000400300281AD5FFE70598006800680003A5
:100BA000002809D4FFE70598406C20B1FFE70598BD
:100BB000416C8847FFE708E00598C06B20B1FFE76C
:100BC0000598C16B8847FFE7FFE720E005980068BC
:100BD0000068C005002811D4FFE70598016808687F
:100BE00020F0100008600599012081F83500FFE72A
:100BF0000599002081F83400FFE7FFE70598C06BF6
:100C000020B1FFE70598C16B8847FFE7FFE7FFE7E3
:100C1000FFE70598406DA0B3FFE70598406DC0075A
:100C200030B3FFE70599052081F835000598016884
:100C3000086820F001000860FFE703980130039086
:100C40000299884201D9FFE707E0FFE705980068AD
:100C50000068C0070028F0D1FFE70599012081F85E
:100C60003500FFE70599002081F83400FFE7FFE732
:100C70000598C06C20B1FFE70598C16C8847FFE775
:100C8000FFE706B080BD000080B586B0049000206C
:100C9000039000F057FB0290049820B9FFE7012071
:100CA0008DF81700A3E00498406A08B1FFE7FFE75A
:100CB0000499022081F83500FFE70499002081F8AB
:100CC0003400FFE704980168086820F0010008601C
:100CD000FFE7049800680068C00790B1FFE700F0E4
:100CE00031FB0299401A06280AD3FFE70499202015
:100CF00048650499032081F835008DF8170076E0E7
:100D0000E7E70498006800680390039848F23F0101
:100D1000CFF2100108400390049900914868D1F87F
:100D200008C0CB680A6940EA0C00184310434A69BE
:100D300010438A691043CA691043096A0143039842
:100D4000084303900498406A042808D1FFE70499F7
:100D5000C86A096B0143039808430390FFE70398AF
:100D60000499096808600498006840690390039832
:100D700020F0070003900498416A03980843039009
:100D80000498406A04281AD1FFE70498816A0398FE
:100D9000084303900498C06A80B1FFE70498FFF706
:100DA00099FC50B1FFE7049940204865049901205F
:100DB00081F835008DF8170019E0FFE7FFE7039889
:100DC0000499096848610498FFF758FC0190049859
:100DD000C16D3F20884001998860049900204865D2
:100DE000049A012182F835108DF81700FFE79DF86D
:100DF000170006B080BD000080B588B00690059150
:100E00000492039300208DF80B000698806D0190EA
:100E1000FFE7069890F83400012804D1FFE702208C
:100E20008DF81F0045E00699012081F83400FFE7A6
:100E3000FFE7069890F8350001282BD1FFE70699C7
:100E4000022081F83500069900204865069805992A
:100E5000049A039BFFF7B6FC0698C16D3F208840BB
:100E60000199886006980168086840F016000860DB
:100E70000698006C38B1FFE706980168086840F0F2
:100E800008000860FFE706980168086840F0010064
:100E9000086009E0FFE70699002081F83400FFE7C9
:100EA00002208DF80B00FFE79DF80B008DF81F0066
:100EB000FFE79DF81F0008B080BD000080B584B03A
:100EC000039000F03FFA02900398019001980130DE
:100ED00048B1FFE740F21000C2F20000017801982B
:100EE00008440190FFE7FFE700F02CFA0299401A4E
:100EF0000199884201D2FFE7F6E704B080BD000007
:100F000081B0ADF80200BDF80200102801D1FFE762
:100F1000FFE7BDF80200202801D1FFE7FFE701B09D
:100F20007047000080B582B0ADF8060043F614406B
:100F3000C4F201000068BDF8061008420CD0FFE7BB
:100F4000BDF8060043F61441C4F201010860BDF883
:100F50000600FFF7D5FFFFE702B080BD8EB00D9011
:100F60000C9100200A90099008900B90FFE70B98D5
:100F70000F2800F2CC81FFE70B99012088400A90EE
:100F80000C9800680A990840099009980A998842C3
:100F900040F0B881FFE70C98406800F0030001289A
:100FA00007D0FFE70C98406800F0030002282FD11B
:100FB000FFE70D98806808900B984100032000FA25
:100FC00001F10898884308900C98C0680B99490073
:100FD00000FA01F108980843089008980D99886074
:100FE0000D98406808900B99012000FA01F10898CB
:100FF000884308900C984068C0F300100B9900FAE1
:1010000001F108980843089008980D994860FFE797
:101010000C98406800F00300032818D0FFE70D98F3
:10102000C06808900B984100032000FA01F108986D
:10103000884308900C9880680B99490000FA01F1E8
:1010400008980843089008980D99C860FFE70C9825
:10105000406800F00300022826D1FFE70D980B99A5
:101060006FF0030202EA51010844006A08900B98ED
:1010700000F0070081000F2000FA01F10898884372
:1010800008900C9800690B9901F00701890000FA9B
:1010900001F108980843089008980D990B9B02EA03
:1010A000530211440862FFE70D98006808900B98FE
:1010B0004100032000FA01F10898884308900C9839
:1010C000406800F003000B99490000FA01F108980C
:1010D0000843089008980D9908600C98807980075B
:1010E000002800F00E81FFE7FFE70020079043F69D
:1010F0004400C4F20200016841F4804101600068CC
:1011000000F4804007900798FFE70B9820F0030059
:1011100043F60801C4F20101405808900B9800F012
:10112000030081000F2000FA01F10898884308901D
:101130000D980021C4F20201884203D1FFE700208C
:1011400006905EE00D9840F20041C4F20201884230
:1011500003D1FFE70120059050E00D9840F6000113
:10116000C4F20201884203D1FFE70220049042E06A
:101170000D9840F60041C4F20201884203D1FFE716
:101180000320039034E00D9841F20001C4F2020103
:10119000884203D1FFE70420029026E00D9841F237
:1011A0000041C4F20201884203D1FFE7052001900B
:1011B00018E00D9841F60001C4F20201884203D103
:1011C000FFE7062000900AE00D9941F60042C4F2C4
:1011D00002020820914208BF07200090FFE7009814
:1011E0000190FFE701980290FFE702980390FFE764
:1011F00003980490FFE704980590FFE70598069090
:10120000FFE70698C0B20B9901F00301890000FACC
:1012100001F108980843089008980B9921F0030100
:1012200043F60802C4F20102885043F60840C4F2B3
:1012300001000068089009990898884308900C9864
:101240008079C006002805D5FFE70999089808436A
:101250000890FFE7089843F60841C4F201010860CE
:1012600043F60C40C4F20100006808900999089800
:10127000884308900C9880798006002805D5FFE700
:101280000999089808430890FFE7089843F60C412D
:10129000C4F20101086043F60440C4F20100006892
:1012A000089009990898884308900C9880798007DD
:1012B000002805D5FFE70999089808430890FFE73B
:1012C000089843F60441C4F20101086043F6004067
:1012D000C4F20100006808900999089888430890B2
:1012E0000C988079C00728B1FFE70999089808434E
:1012F0000890FFE7089843F60041C4F20101086036
:10130000FFE7FFE7FFE70B9801300B902FE60EB0E9
:101310007047000082B00190ADF802108DF80120F6
:101320009DF8010028B1FFE7BDF80200019988612E
:1013300005E0BDF80200000401998861FFE702B0F2
:101340007047000040F2F410C2F2000000687047DD
:1013500040F21000C2F20000027840F2F411C2F232
:1013600000010868104408607047000080B543F62B
:101370000041C4F20201086840F400700860086887
:1013800040F480600860086840F4807008600320C2
:1013900000F08AF8022000F005F800F03BF8002089
:1013A00080BD000080B582B0009040F20400C2F21F
:1013B0000000006840F21001C2F200010A784FF408
:1013C0007A71B1FBF2F1B0FBF1F001F007FB20B153
:1013D000FFE701208DF8070018E000980F280DD8CE
:1013E000FFE700994FF0FF30002200F043F800982B
:1013F00040F21401C2F20001086003E001208DF800
:10140000070003E000208DF80700FFE79DF80700C4
:1014100002B080BD82B0FFE70020019043F6440097
:10142000C4F20200016841F480410160006800F4E8
:10143000804001900198FFE7FFE70020009043F60D
:101440004000C4F20200016841F080510160006870
:1014500000F0805000900098FFE702B07047000055
:1014600080B582B08DF807009DF9070003F056FFA4
:1014700002B080BD80B586B08DF81700049103924C
:101480000020029003F062FF02909DF91700019086
:1014900002980499039A02F03FFA0146019803F07A
:1014A0005DFF06B080BD000080B582B0019001985C
:1014B00003F076FF02B080BD7047000080B584B0B5
:1014C00002900191029820B9FFE701208DF80F00EA
:1014D00021E1019843F60041C4F20201096801F0DC
:1014E0000701884212D9FFE7019943F60040C4F290
:1014F00002000170006800F007000199884204D0E2
:10150000FFE701208DF80F0005E1FFE70298007862
:10151000800700282AD5FFE70298007840070028B6
:1015200009D5FFE743F60801C4F20201086840F458
:10153000E0500860FFE7029800780007002809D50E
:10154000FFE743F60801C4F20201086840F4604076
:101550000860FFE743F60801C4F20201086820F0C2
:10156000F000029A926810430860FFE70298007842
:10157000C00700286ED0FFE702984068012811D10B
:10158000FFE743F60000C4F20200006800F40031F7
:101590000020B0EB514F04D1FFE701208DF80F0080
:1015A000B9E02CE002984068022805D0FFE70298D5
:1015B0004068032811D1FFE743F60000C4F202009F
:1015C000006800F000710020B0EB516F04D1FFE71C
:1015D00001208DF80F009EE010E043F60000C4F2F9
:1015E0000200006800F002010020B0EB510F04D1AE
:1015F000FFE701208DF80F008DE0FFE7FFE743F6DE
:101600000801C4F20201086820F00300029A52683F
:1016100010430860FFF796FE0090FFE743F60800CE
:10162000C4F20200006800F00C0002994968B0EBB7
:10163000810F0ED0FFE7FFF785FE0099401A41F2B7
:101640008931884204D3FFE703208DF80F0062E060
:10165000E4E7FFE7019843F60041C4F2020109689C
:1016600001F00701884212D2FFE7019943F60040DA
:10167000C4F202000170006800F00700019988427E
:1016800004D0FFE701208DF80F0044E0FFE7029847
:101690000078400700280CD5FFE743F60801C4F2A4
:1016A0000201086820F4E050029AD26810430860F2
:1016B000FFE702980078000700280DD5FFE743F602
:1016C0000801C4F20201086820F46040029A12691D
:1016D00040EAC2000860FFE700F052F843F6080154
:1016E000C4F202010968C9B20A0945F6BC41C0F654
:1016F0000001895CC84040F20401C2F200010860A8
:1017000040F21400C2F200000068FFF74BFE002018
:101710008DF80F00FFE79DF80F0004B080BD0000BA
:101720004C21C4F2472101200860704740F20400B8
:10173000C2F200000068704780B5FFF7F7FF43F67C
:101740000801C4F202010968C1F3822245F6CC41C6
:10175000C0F60001895CC84080BD000080B5FFF77D
:10176000E5FF43F60801C4F20201096889B24A0B99
:1017700045F6CC41C0F60001895CC84080BD000040
:1017800080B586B00020059004900390029043F647
:101790000800C4F20200006800F00C00014601914C
:1017A00040B1FFE7019804280AD0FFE70198082814
:1017B0000CD04FE042F20040C0F2F40002904FE043
:1017C00041F60030C0F2B700029049E043F6040051
:1017D000C4F20200016801F03F0105910068400277
:1017E000002813D5FFE743F60400C4F202000068A6
:1017F000C0F3881041F60031C0F2B701A0FB01012F
:10180000059A0023FEF7DEFC049012E043F6040084
:10181000C4F202000068C0F3881042F20041C0F236
:10182000F401A0FB0101059A0023FEF7CBFC049014
:10183000FFE743F60400C4F20200006800F4403100
:10184000022000EBD130039004980399B0FBF1F033
:10185000029005E042F20040C0F2F4000290FFE77F
:10186000029806B080BD000080B543F60C00C4F2BB
:10187000020000680006002809D5FFE7FFF71CFEFC
:1018800043F60E01C4F2020180200870FFE780BD1C
:1018900080B586B00490049820B9FFE701208DF848
:1018A000170050E304980078C007002800F0A580D6
:1018B000FFE743F60800C4F20200006800F00C00E5
:1018C000042813D0FFE743F60800C4F202000068C2
:1018D00000F00C0008281ED1FFE743F60400C4F214
:1018E000020000684002002815D5FFE743F600001B
:1018F000C4F20200006800F400310020B0EB514F48
:1019000008D0FFE70498406820B9FFE701208DF870
:10191000170018E370E0FFE704984068B0F5803FD7
:1019200009D1FFE743F60001C4F20201086840F460
:101930008030086020E004984068B0F5A02F0DD1F9
:10194000FFE743F60001C4F20201086840F480207A
:101950000860086840F4803008600CE043F600013D
:10196000C4F20201086820F480300860086820F49E
:1019700080200860FFE7FFE7FFE704984068E8B1D0
:10198000FFE7FFF7DFFC0390FFE743F60000C4F238
:101990000200006800F400310020B0EB514F0CD180
:1019A000FFE7FFF7CFFC0399401A652804D3FFE750
:1019B00003208DF81700C6E2E7E71CE0FFF7C2FC42
:1019C0000390FFE743F60000C4F20200006800F451
:1019D00000310020B0EB514F0CD0FFE7FFF7B2FC15
:1019E0000399401A652804D3FFE703208DF81700F8
:1019F000A9E2E7E7FFE7FFE7FFE704980078800741
:101A0000002840F19680FFE743F60800C4F2020088
:101A1000006810F00C0F13D0FFE743F60800C4F283
:101A20000200006800F00C0008282CD1FFE743F604
:101A30000400C4F2020000684002002823D4FFE73B
:101A400043F60000C4F20200006800F0020100202A
:101A5000B0EB510F09D0FFE70498C068012804D00B
:101A6000FFE701208DF817006DE243F60001C4F294
:101A70000201086820F0F800049A126940EAC200E6
:101A80000860FFE754E00498C06870B3FFE70021E6
:101A9000C4F2472101200860FFF754FC0390FFE7E0
:101AA00043F60000C4F20200006800F002010020CA
:101AB000B0EB510F0CD1FFE7FFF744FC0399401A3C
:101AC000032804D3FFE703208DF817003BE2E7E784
:101AD00043F60001C4F20201086820F0F800049AFD
:101AE000126940EAC200086021E00021C4F24721E7
:101AF00000200860FFF726FC0390FFE743F6000094
:101B0000C4F20200006800F002010020B0EB510FA7
:101B10000CD0FFE7FFF716FC0399401A032804D303
:101B2000FFE703208DF817000DE2E7E7FFE7FFE787
:101B3000FFE704980078000700284BD5FFE70498DA
:101B4000406918B3FFE740F68061C4F247210120E5
:101B50000860FFF7F7FB0390FFE743F67400C4F259
:101B60000200006800F002010020B0EB510F0CD120
:101B7000FFE7FFF7E7FB0399401A032804D3FFE7C9
:101B800003208DF81700DEE1E7E722E040F68061F0
:101B9000C4F2472100200860FFF7D4FB0390FFE761
:101BA00043F67400C4F20200006800F00201002055
:101BB000B0EB510F0CD0FFE7FFF7C4FB0399401ABD
:101BC000032804D3FFE703208DF81700BBE1E7E704
:101BD000FFE7FFE7049800784007002840F1CE8037
:101BE000FFE700208DF8070043F64000C4F2020032
:101BF0000068C000002815D4FFE7FFE70020009030
:101C000043F64000C4F20200016841F080510160D7
:101C1000006800F0805000900098FFE701208DF8E8
:101C20000700FFE747F20000C4F200000068C005AB
:101C3000002822D4FFE747F20001C4F2000108683F
:101C400040F480700860FFF77DFB0390FFE747F2E8
:101C50000000C4F200000068C00500280CD4FFE7B3
:101C6000FFF770FB0399401A032804D3FFE7032012
:101C70008DF8170067E1EAE7FFE7FFE7049880685F
:101C8000012809D1FFE743F67001C4F20201086898
:101C900040F0010008601FE00498806805280DD11D
:101CA000FFE743F67001C4F20201086840F0040047
:101CB0000860086840F0010008600CE043F670011D
:101CC000C4F20201086820F001000860086820F0F2
:101CD00004000860FFE7FFE7FFE704988068F8B1B9
:101CE000FFE7FFF72FFB0390FFE743F67000C4F216
:101CF0000200006800F002010020B0EB510F0ED18D
:101D0000FFE7FFF71FFB0399401A41F28931884230
:101D100004D3FFE703208DF8170014E1E5E71EE088
:101D2000FFF710FB0390FFE743F67000C4F20200D8
:101D3000006800F002010020B0EB510F0ED0FFE769
:101D4000FFF700FB0399401A41F28931884204D31E
:101D5000FFE703208DF81700F5E0E5E7FFE79DF8C2
:101D60000700012809D1FFE743F64001C4F2020150
:101D7000086820F080500860FFE7FFE7049880695A
:101D8000002800F0DC80FFE743F60800C4F2020000
:101D9000006800F00C00082800F08580FFE7049838
:101DA000806902285CD1FFE76021C4F2472100204E
:101DB0000860FFF7C7FA0390FFE743F60000C4F29C
:101DC0000200006800F000710020B0EB516F0CD0F1
:101DD000FFE7FFF7B7FA0399401A032804D3FFE798
:101DE00003208DF81700AEE0E7E70499C869D1F841
:101DF00020C04B6A8A6A40EA0C0040EA8310D20392
:101E00004FF6FF739A43A2F580321043C96A40EA45
:101E1000016043F60401C4F2020108606021C4F2CB
:101E2000472101200860FFF78DFA0390FFE743F692
:101E30000000C4F20200006800F000710020B0EB66
:101E4000516F0CD1FFE7FFF77DFA0399401A032881
:101E500004D3FFE703208DF8170074E0E7E721E0E3
:101E60006021C4F2472100200860FFF76BFA03905D
:101E7000FFE743F60000C4F20200006800F00071C2
:101E80000020B0EB516F0CD0FFE7FFF75BFA03992E
:101E9000401A032804D3FFE703208DF8170052E00F
:101EA000E7E7FFE74AE004988069012804D1FFE7EB
:101EB00001208DF8170046E043F60400C4F202004A
:101EC0000068029004988069012831D0FFE70298E9
:101ED00000F480000499C969884229D1FFE702987B
:101EE00000F03F000499096A884221D1FFE7029877
:101EF00047F6C07108400499496AB0EB811F17D1B9
:101F0000FFE7029800F440300499896AC9034FF64C
:101F1000FF729143A1F58031884209D1FFE7029811
:101F200000F070600499C96AB0EB016F04D0FFE75C
:101F300001208DF8170006E0FFE7FFE7FFE700202C
:101F40008DF81700FFE79DF8170006B080BD000070
:101F500081B00090009890F8510001B070470000E7
:101F600080B584B00290029820B9FFE701208DF877
:101F70000F0071E00298406A60B9FFE7029840687C
:101F8000B0F5827F01D1FFE703E002990020C8612C
:101F9000FFE705E002990020086102994861FFE728
:101FA000029900208862029890F8510040B9FFE73A
:101FB0000299002081F85000029800F051F8FFE7E4
:101FC0000299022081F8510002980168086820F007
:101FD00040000860029A019211685068D2F808C067
:101FE000D36800F482700CF4044C604403F4006382
:101FF0001844136903F002031844536903F0010302
:102000001844936903F400731844D36903F0380348
:102010001844136A03F080031843926A02F40052D2
:1020200010430860029A508B00F004001168526A55
:1020300002F010021044486002980168C86920F458
:102040000060C861029900204865029A012182F867
:1020500051108DF80F00FFE79DF80F0004B080BD10
:1020600080B58EB00D9000200C900B900A900990D6
:1020700008900D98006843F20001C4F20101884203
:102080005ED1FFE7FFE70020079043F64400C4F26B
:102090000200016841F480510160006800F4805042
:1020A00007900798FFE7FFE70020069043F630000F
:1020B000C4F20200016841F002010160006800F012
:1020C000020006900698FFE7FFE70020059043F620
:1020D0003000C4F20200016841F0010101600068B3
:1020E00000F0010005900598FFE7182008900220F5
:1020F00000900990002001900A90032002900B901C
:10210000052003900C9040F20040C4F2020008A9A0
:102110000491FEF723FFDDF800C0019B029A0398AB
:1021200004994FF0800ECDF820E0CDF824C00A933A
:102130000B920C900020C4F20200FEF70FFFFFE7A5
:102140000EB080BD80B588B006900591ADF8122024
:102150000393069890F85100012804D0FFE702206D
:102160008DF81F0011E1059820B1FFE7BDF81200BE
:1021700020B9FFE701208DF81F0006E106984068AE
:10218000B0F5827F16D1FFE70698806890B9FFE727
:102190000699042081F851000698059ABDF812307E
:1021A0000399EC46CCF80010114600F045FA8DF882
:1021B0001F00EAE0FFF7C6F80290FFE7069890F8E4
:1021C0005000012804D1FFE702208DF81F00DCE059
:1021D0000699012081F85000FFE7FFE706990420E7
:1021E00081F851000699002048650599069A916387
:1021F000BDF81210069A9187BDF81210069AD18781
:1022000006990863069988860699C886069908641F
:102210000699486406988068B0F5004F0DD1FFE735
:1022200006980168086820F0400008600698016878
:10223000086820F480400860FFE70698006800689E
:1022400000F04000402807D0FFE7069801680868C2
:1022500040F040000860FFE70698C068D0BBFFE789
:10226000FFE70698C08FA0B3FFE706980068806874
:10227000C00778B1FFE706980068007B0699896B74
:1022800008700699886B013088630699C88F0138F9
:10229000C8871DE0FFF756F80299401A0399884253
:1022A00004D3FFE70398013018B9FFE7039870B92A
:1022B000FFE70699012081F85100FFE70699002009
:1022C00081F85000FFE703208DF81F005DE0FFE775
:1022D000C7E739E0FFE70698C08FA0B3FFE706988D
:1022E00000688068C00778B1FFE706980068C0689A
:1022F0000699896B08800699886B02308863069975
:10230000C88F0138C8871DE0FFF71CF80299401AF2
:102310000399884204D3FFE70398013018B9FFE717
:10232000039870B9FFE70699012081F85100FFE793
:102330000699002081F85000FFE703208DF81F0068
:1023400023E0FFE7C7E7FFE706980399029A01F049
:102350001BFB20B1FFE7069920204865FFE706999F
:10236000012081F85100FFE70699002081F8500014
:10237000FFE70698406D20B1FFE701208DF81F00B0
:1023800003E000208DF81F00FFE79DF81F0008B054
:1023900080BD000080B588B006900591ADF8122090
:1023A0000393FEF7CFFF0290BDF81200ADF80600D0
:1023B000069890F85100012804D0FFE702208DF81C
:1023C0001F0034E1059820B1FFE7BDF8120020B9E5
:1023D000FFE701208DF81F0029E1FFE7069890F83C
:1023E0005000012804D1FFE702208DF81F001EE1F4
:1023F0000699012081F85000FFE7FFE706990320C6
:1024000081F851000699002048650599069A1163E4
:10241000BDF81210069A9186BDF81210069AD18660
:1024200006998863069988870699C887069948643B
:102430000699086406988068B0F5004F0DD1FFE753
:1024400006980168086820F0400008600698016856
:10245000086840F480400860FFE70698006800685C
:1024600000F04000402807D0FFE7069801680868A0
:1024700040F040000860FFE70698C068B0F5006FC4
:1024800051D1FFE70698406828B1FFE7BDF8060084
:1024900001280ED1FFE706980168006B0088C8602C
:1024A0000699086B023008630699C88E0138C88601
:1024B000FFE7FFE70698C08EA0B3FFE70698006825
:1024C0008068800700280ED5FFE706980168006B3A
:1024D0000088C8600699086B023008630699C88EA8
:1024E0000138C8861DE0FEF72DFF0299401A0399B6
:1024F000884204D3FFE70398013018B9FFE7039837
:1025000070B9FFE70699012081F85100FFE70699AD
:10251000002081F85000FFE703208DF81F0086E0BF
:10252000FFE7C7E750E00698406828B1FFE7BDF82D
:10253000060001280ED1FFE706980168006B0078BD
:1025400008730699086B013008630699C88E013834
:10255000C886FFE7FFE70698C08EA0B3FFE706989E
:1025600000688068800700280ED5FFE7069801689C
:10257000006B007808730699086B013008630699B0
:10258000C88E0138C8861DE0FEF7DCFE0299401AAD
:102590000399884204D3FFE70398013018B9FFE795
:1025A000039870B9FFE70699012081F85100FFE711
:1025B0000699002081F85000FFE703208DF81F00E6
:1025C00035E0FFE7C7E7FFE706980399029A01F0B5
:1025D0004DFA20B1FFE7069920204865FFE70698ED
:1025E000806870B9FFE7FFE7002000900698006858
:1025F000C068009006980068806800900098FFE727
:10260000FFE70699012081F85100FFE706990020B5
:1026100081F85000FFE70698406D20B1FFE70120E8
:102620008DF81F0003E000208DF81F00FFE79DF8E4
:102630001F0008B080BD000080B58CB0DDF838C048
:102640000A9009910892ADF81E3001200390FEF720
:1026500079FE04900A9890F851008DF817000A98B6
:1026600040680690BDF81E00ADF81C009DF81700EC
:10267000012812D0FFE70698B0F5827F09D1FFE765
:102680000A98806828B9FFE79DF81700042804D04D
:10269000FFE702208DF82F009BE1099838B1FFE792
:1026A000089820B1FFE7BDF81E0020B9FFE7012020
:1026B0008DF82F008DE1FFE70A9890F8500001286F
:1026C00004D1FFE702208DF82F0082E10A99012052
:1026D00081F85000FFE7FFE70A9890F851000428BE
:1026E00005D0FFE70A99052081F85100FFE70A9914
:1026F0000020486508990A9A9163BDF81E100A9A4D
:10270000D187BDF81E100A9A918709990A9A116318
:10271000BDF81E100A9AD186BDF81E100A9A91863D
:102720000A9908640A9948640A980068006800F0E9
:102730004000402807D0FFE70A980168086840F089
:1027400040000860FFE70A98C068B0F5006F40F0ED
:102750008180FFE70A98406828B1FFE7BDF81C00B8
:1027600001280ED1FFE70A980168006B0088C86055
:102770000A99086B023008630A99C88E0138C88626
:10278000FFE7FFE70A98C18E0120019039B9FFE702
:102790000A98C08F002818BF01200190FFE7019818
:1027A000C007002855D0FFE70A98006880688007B6
:1027B000002818D5FFE70A98C08EA0B1FFE703985C
:1027C000012810D1FFE70A980168006B0088C860F3
:1027D0000A99086B023008630A99C88E0138C886C6
:1027E00000200390FFE70A9800688068C007A8B13E
:1027F000FFE70A98C08F88B1FFE70A980068C068B1
:102800000A99896B08800A99886B023088630A9953
:10281000C88F0138C88701200390FFE7FEF792FDBB
:102820000499401A0E99884212D3FFE70E9801309E
:1028300070B1FFE70A99012081F85100FFE70A997A
:10284000002081F85000FFE703208DF82F00C0E042
:1028500098E782E00A98406828B1FFE7BDF81C00BD
:1028600001280ED1FFE70A980168006B0078087311
:102870000A99086B013008630A99C88E0138C88626
:10288000FFE7FFE70A98C18E0120009039B9FFE702
:102890000A98C08F002818BF01200090FFE7009819
:1028A000C007002858D0FFE70A98006880688007B2
:1028B000002818D5FFE70A98C08EA0B1FFE703985B
:1028C000012810D1FFE70A980168006B00780873AF
:1028D0000A99086B013008630A99C88E0138C886C6
:1028E00000200390FFE70A9800688068C007A8B13D
:1028F000FFE70A98C08F88B1FFE70A980068C068B0
:102900000A99896B08700A99886B013088630A9963
:10291000C88F0138C88701200390FFE7FEF712FD3A
:102920000499401A0E99884204D3FFE70E980130AB
:1029300018B9FFE70E9870B9FFE70A99012081F8EE
:102940005100FFE70A99002081F85000FFE70320BB
:102950008DF82F003DE095E7FFE70A980E99049A5D
:1029600001F084F868B1FFE70A9920204865FFE785
:102970000A99002081F85000FFE701208DF82F0010
:1029800027E00A98806870B9FFE7FFE7002002900F
:102990000A980068C06802900A98006880680290EF
:1029A0000298FFE7FFE70A99012081F85100FFE74D
:1029B0000A99002081F85000FFE70A98406D20B185
:1029C000FFE701208DF82F0003E000208DF82F0095
:1029D000FFE79DF82F000CB080BD000080B582B0ED
:1029E0000190019801F040F902B080BD81B00090E3
:1029F00001B0704781B0009001B0704785B003907E
:102A00000291FFE7039890F83C00012804D1FFE70A
:102A100002208DF813007EE00399012081F83C002C
:102A2000FFE7FFE70399022081F83D000398006863
:102A3000406801900398006880680090019820F039
:102A40007000019002980168019808430190019874
:102A5000039909684860039800680021C4F20101E5
:102A600088423CD0FFE703980068B0F1804F36D031
:102A7000FFE70398006840F20041C4F20001884279
:102A80002DD0FFE70398006840F60001C4F2000172
:102A9000884224D0FFE70398006840F60041C4F262
:102AA000000188421BD0FFE70398006840F2004114
:102AB000C4F20101884212D0FFE70398006844F293
:102AC0000001C4F20101884209D0FFE703980068C1
:102AD00041F60001C4F2000188420ED1FFE70098E0
:102AE00020F0800000900298416800980843009010
:102AF0000098039909688860FFE70399012081F82D
:102B00003D00FFE70399002081F83C00FFE700202B
:102B10008DF81300FFE79DF8130005B07047000023
:102B200080B582B00090009820B9FFE701208DF8B1
:102B300007003FE0009890F83D0040B9FFE700999A
:102B4000002081F83C00009800F038F8FFE7009979
:102B5000022081F83D00009951F8040B01F0C4F8FF
:102B60000099012081F84600FFE70099012081F8D3
:102B70003E00009981F83F00009981F840000099DB
:102B800081F84100FFE7FFE70099012081F842004A
:102B9000009981F84300009981F84400009981F878
:102BA0004500FFE70099012081F83D0000208DF8E5
:102BB0000700FFE79DF8070002B080BD80B584B034
:102BC00003900398006841F20001C4F200018842BA
:102BD0001BD1FFE7FFE70020029043F64000C4F25C
:102BE0000200016841F010010160006800F010006F
:102BF00002900298FFE73620019002210022FEF7A2
:102C000039FC0198FEF72CFCFFE704B080BD000002
:102C100083B00190019890F83D00012804D0FFE7AF
:102C200001208DF80B006AE00199022081F83D0037
:102C300001980168C86840F00100C8600198006808
:102C40000021C4F2010188423CD0FFE701980068EE
:102C5000B0F1804F36D0FFE70198006840F20041A4
:102C6000C4F2000188422DD0FFE70198006840F6C9
:102C70000001C4F20001884224D0FFE701980068F7
:102C800040F60041C4F2000188421BD0FFE70198E2
:102C9000006840F20041C4F20101884212D0FFE70F
:102CA0000198006844F20001C4F20101884209D091
:102CB000FFE70198006841F60001C4F20001884274
:102CC00012D1FFE701980068806800F007000090CB
:102CD0000098062807D0FFE701980168086840F0CF
:102CE00001000860FFE706E001980168086840F00D
:102CF00001000860FFE700208DF80B00FFE79DF85A
:102D00000B0003B07047000081B0009001B0704725
:102D100080B584B0039003980068C068029003985F
:102D20000068006901909DF804008007002824D500
:102D3000FFE79DF80800800700281DD5FFE70398EE
:102D400001686FF002000861039901200877039879
:102D500000688069800720B1FFE70398FFF7D4FF80
:102D600006E0039800F0E2F8039800F0E3F8FFE7CC
:102D7000039900200877FFE7FFE79DF8040040076C
:102D8000002825D5FFE79DF80800400700281ED53C
:102D9000FFE7039801686FF00400086103990220BF
:102DA000087703980068806910F4407F04D0FFE73B
:102DB0000398FFF7A9FF06E0039800F0B7F803981F
:102DC00000F0B8F8FFE7039900200877FFE7FFE776
:102DD0009DF804000007002824D5FFE79DF80800AF
:102DE000000700281DD5FFE7039801686FF0080071
:102DF000086103990420087703980068C069800778
:102E000020B1FFE70398FFF77FFF06E0039800F08B
:102E10008DF8039800F08EF8FFE7039900200877FB
:102E2000FFE7FFE79DF80400C006002825D5FFE76F
:102E30009DF80800C00600281ED5FFE7039801682A
:102E40006FF0100008610399082008770398006864
:102E5000C06910F4407F04D0FFE70398FFF754FFE8
:102E600006E0039800F062F8039800F063F8FFE7CB
:102E7000039900200877FFE7FFE79DF80400C007EB
:102E800078B1FFE79DF80800C00748B1FFE7039855
:102E900001686FF001000861039800F04FF8FFE748
:102EA000FFE79DF804000006002810D5FFE79DF815
:102EB00008000006002809D5FFE7039801686FF0B5
:102EC000800008610398FFF791FDFFE7FFE79DF899
:102ED00004004006002810D5FFE79DF808004006D2
:102EE000002809D5FFE7039801686FF040000861EA
:102EF000039800F03FF8FFE7FFE79DF80400800625
:102F0000002810D5FFE79DF808008006002809D5A5
:102F1000FFE7039801686FF0200008610398FFF74E
:102F200069FDFFE7FFE704B080BD000081B00090BD
:102F300001B0704781B0009001B0704780B582B099
:102F40000190019840F2D001C2F2000188420FD1F5
:102F5000FFE740F26010C2F20000009001F078FD3F
:102F6000009801F063FE0098012101F0C9FEFFE71F
:102F700002B080BD81B0009001B0704780B586B0CE
:102F800004900391ADF80A20049890F8420020289C
:102F900048D1FFE7039820B1FFE7BDF80A0020B948
:102FA000FFE701208DF8170040E004990120086335
:102FB00004990020486304980399BDF80A2001F0A1
:102FC00011FA8DF809000498006B012821D1FFE760
:102FD000FFE70020019004980068006801900498C1
:102FE0000068406801900198FFE7FFE7FFE7049859
:102FF000006850E8030F40F010000090FFE70099D0
:103000000498026842E803100028F0D1FFE7FFE7C8
:1030100003E001208DF80900FFE79DF809008DF815
:10302000170003E002208DF81700FFE79DF8170056
:1030300006B080BD80B582B00190ADF80210019855
:1030400040F21811C2F2000188421AD1FFE701983C
:10305000406B012815D0FFE7BDF80200122807D108
:10306000FFE740F29410C2F2000001F027FCFFE7F6
:10307000019840F29411C2F200012022FFF77EFF76
:10308000FFE702B080BD000081B0009001B0704742
:1030900080B592B011901198006800681090119856
:1030A0000068C0680F901198006840690E90002079
:1030B0000D900C90109800F00F000D900D9888B9AD
:1030C000FFE79DF84000800600280AD5FFE79DF83D
:1030D0003C008006002804D5FFE7119801F030F885
:1030E00002E2FFE70D98002800F0C280FFE79DF89C
:1030F0003800C00738B9FFE7BDF83C0010F4907FF6
:1031000000F0B680FFE79DF84000C00758B1FFE728
:103110009DF83D00C00730B1FFE71199486C40F0C1
:1031200001004864FFE79DF84000400700280BD5E8
:10313000FFE79DF83800C00730B1FFE71199486CF0
:1031400040F002004864FFE79DF840008007002837
:103150000BD5FFE79DF83800C00730B1FFE71199A4
:10316000486C40F004004864FFE79DF84000000709
:10317000002811D5FFE79DF83C008006002805D403
:10318000FFE79DF83800C00730B1FFE71199486CA0
:1031900040F008004864FFE71198406C002866D0B2
:1031A000FFE79DF84000800600280AD5FFE79DF85C
:1031B0003C008006002804D5FFE7119800F0C0FF0E
:1031C000FFE7119800684069C0F380100C901198D7
:1031D000406C0007002804D4FFE70C9800283ED07C
:1031E000FFE7119800F032FF11980068406940062F
:1031F00000282FD5FFE7FFE7FFE71198006850E8A8
:10320000050F20F040000B90FFE70B991198026822
:1032100042E805100028F0D1FFE7FFE71198C06BE6
:1032200098B1FFE71198C16B43F68D60C0F60000BE
:1032300008651198C06BFDF775FB28B1FFE7119881
:10324000C06B016D8847FFE703E01198FFF71CFF93
:10325000FFE703E01198FFF717FFFFE706E011987B
:10326000FFF712FF119900204864FFE7FFE73BE1F9
:103270001198006B012840F01781FFE79DF840008E
:10328000C006002840F11081FFE79DF83C00C00611
:10329000002840F10981FFE7FFE700200A9011981C
:1032A000006800680A901198006840680A900A98BF
:1032B000FFE71198006840694006002840F19A80B5
:1032C000FFE71198C06B00684068ADF82600BDF8B4
:1032D0002600002875D0FFE7BDF826001199898DDA
:1032E00088426EDAFFE7BDF826001199C88511986B
:1032F000C06BC069B0F5807F58D0FFE7FFE7FFE7FC
:103300001198006850E8030F20F480700890FFE7E0
:1033100008991198026842E803100028F0D1FFE7ED
:10332000FFE7FFE7FFE71198006850E8050F20F07E
:1033300001000790FFE707991198026842E805101D
:103340000028F0D1FFE7FFE7FFE7FFE711980068EB
:1033500050E8050F20F040000690FFE7069911980D
:10336000026842E805100028F0D1FFE7FFE7119955
:10337000202081F84200119900200863FFE7FFE751
:103380001198006850E8030F20F010000590FFE747
:1033900005991198026842E803100028F0D1FFE770
:1033A000FFE71198C06BFDF747FAFFE7119902207C
:1033B00048631198818DC28D891A89B2FFF73AFE50
:1033C00017E0BDF826001199898D884210D1FFE7DA
:1033D0001198C06BC069B0F5807F08D1FFE71199E3
:1033E000022048631198818DFFF724FEFFE7FFE775
:1033F000FFE779E01199888DC98D401AADF8120068
:103400001198C08D00284ED0FFE7BDF812000028AB
:1034100049D0FFE7FFE7FFE71198006850E8030F86
:1034200020F490700390FFE703991198026842E836
:1034300003100028F0D1FFE7FFE7FFE7FFE711984F
:10344000006850E8050F20F001000290FFE70299A4
:103450001198026842E805100028F0D1FFE7FFE765
:103460001199202081F84200119900200863FFE79C
:10347000FFE71198006850E8030F20F0100001905A
:10348000FFE701991198026842E803100028F0D183
:10349000FFE7FFE71199022048631198BDF8121069
:1034A000FFF7C8FDFFE71FE09DF840000006002879
:1034B0000AD5FFE79DF83C000006002804D5FFE789
:1034C000119801F027F80FE09DF840004006002811
:1034D0000AD5FFE79DF83C004006002804D5FFE729
:1034E000119800F0FDFDFFE712B080BD80B582B0FD
:1034F0000090009820B9FFE701208DF8070040E018
:103500000098806908B1FFE700E0FFE7009890F8B5
:10351000410040B9FFE70099002081F84000009881
:1035200000F034F8FFE70099242081F8410000986A
:103530000168C86820F40050C860009800F0B4FE2C
:1035400000980168086920F49040086100980168BB
:10355000486920F02A00486100980168C86840F472
:103560000050C860009900204864009A202182F829
:103570004110009A82F84210009948638DF80700C4
:10358000FFE79DF8070002B080BD000080B58CB059
:103590000B9000200A9009900890079006900B98D5
:1035A000006844F60001C4F20001884268D1FFE7D8
:1035B000FFE70020059043F64000C4F202000168D6
:1035C00041F480210160006800F480200590059896
:1035D000FFE7FFE70020049043F63000C4F202004A
:1035E000016841F004010160006800F004000490EB
:1035F0000498FFE74FF440600690022007900020F7
:10360000029008900320099007200A9040F60000DD
:10361000C4F2020006A9FDF7A1FC029940F21800CD
:10362000C2F20000039046F22802C4F202020260D5
:103630004FF0006242608160C1604FF480620261BD
:1036400041618161C16101624162FDF71DFB18B1F9
:10365000FFE7FDF7EDF8FFE7FFE70B9840F21801F1
:10366000C2F20001C1630B988863FFE72720019035
:1036700002210022FDF7FEFE0198FDF7F1FEFFE7B3
:103680000CB080BD81B0009001B0704781B0009057
:1036900001B0704781B0009001B07047FFE7FEE7CE
:1036A00080B582B0FFE70020019043F63000C4F2FD
:1036B0000200016841F400110160006800F400108C
:1036C00001900198FFE70C20009000221146FDF7C1
:1036D000D1FE0098FDF7C4FE02B080BD80B592B067
:1036E0000020119010900F900E900D90FFE7002099
:1036F0000C9043F63000C4F20200016841F0020170
:103700000160006800F002000C900C98FFE7FFE7F2
:1037100000200B9043F63000C4F20200016841F033
:1037200001010160006800F001000B900B98FFE7B9
:10373000FFE700200A9043F63000C4F2020001685F
:1037400041F004010160006800F004000A900A984A
:10375000FFE7FFE70020099043F63000C4F20200C3
:10376000016841F080010160006800F0800009906C
:103770000998FFE70020C4F2020001901021009197
:1037800001220292FDF7C6FD029A40F20040C4F207
:10379000020004901146FDF7BDFD009A01980299C0
:1037A0000D920E910F910221039110910DA9059197
:1037B000FDF7D4FB059930200D904FF404100E90C6
:1037C000002007900F9040F60000C4F20200FDF7C1
:1037D000C5FB029B039A049805990D930E930F93D2
:1037E0001092FDF7BBFB079A0A2006901146FDF7E1
:1037F00041FE0698FDF734FE079A172008901146FF
:10380000FDF738FE0898FDF72BFE12B080BD0000D2
:1038100080B582B040F27800C2F20000019043F21D
:103820000001C4F2010101604FF482714160002186
:103830008160C160016141614FF400728261382290
:10384000C2610162416281620A21C162FEF788FBA6
:1038500018B1FFE7FCF7ECFFFFE702B080BD000006
:1038600080B582B000210191009140F2D000C2F2F7
:10387000000041F20002C4F20002026053224260E2
:10388000816040F2E732C2608161FFF749F918B107
:10389000FFE7FCF7CDFFFFE700200090019040F22A
:1038A000D000C2F200006946FFF7A8F818B1FFE7A0
:1038B000FCF7BEFFFFE702B080BD000080B582B01C
:1038C00040F21810C2F20000019044F60001C4F268
:1038D0000001016048F2A061C0F2010141604FF4B3
:1038E000805181600021C1604FF480620261042236
:1038F00042618161C161FFF7F9FD18B1FFE7FCF793
:1039000097FFFFE702B080BDFFE7FEE780B5FDF758
:10391000ABFFFFE7FEE7000088B007900691059235
:10392000079800F0070004900498C0F107000528EC
:1039300003D3FFE70420019004E00498C0F10700DE
:103940000190FFE70198039004980430062803D8FB
:10395000FFE70020009003E0049803380090FFE7A1
:103960000098029006980399012202FA01F10139A8
:103970000840029B984005999A40013A114008433B
:1039800008B070477047000080B586B0049003917E
:10399000029204984068B0F5827F13D1FFE7049843
:1039A0008068B0F5004F06D0FFE704988068B0F556
:1039B000806F07D1FFE704980168086820F0400095
:1039C0000860FFE704984068B0F5827F31D1FFE7D7
:1039D00004988068B0F5806F15D0FFE70498039BCA
:1039E00002996A4611608021002200F0A5F848B1D2
:1039F000FFE70499486D40F02000486503208DF8EA
:103A000017002FE014E00498039B02996A461160A6
:103A10000121002200F090F848B1FFE70499486DB9
:103A200040F02000486503208DF817001AE0FFE7FA
:103A300014E00498039B02996A4611600121002258
:103A400000F07AF848B1FFE70499486D40F0200093
:103A5000486503208DF8170004E0FFE700208DF88B
:103A60001700FFE79DF8170006B080BD80B586B04F
:103A70000490039102920498039B02996A46116094
:103A80000221012200F058F848B1FFE70499486D7F
:103A900040F02000486503208DF8170048E040F210
:103AA0000400C2F2000000684AF6AB21CAF6AA215F
:103AB000A0FB011000094DF68361C4F21B31A0FB8D
:103AC0000110800C4FF47A714843019004984068CB
:103AD000B0F5827F15D1FFE70498039B02996A46EF
:103AE00011608021002200F027F848B1FFE7049917
:103AF000486D40F02000486503208DF8170017E05E
:103B000012E0FFE7019808B9FFE70CE001980138DF
:103B10000190FFE7049800688068C1B20020B0EB14
:103B2000D11FEFD1FFE7FFE700208DF81700FFE777
:103B30009DF8170006B080BD80B58AB0DDF830C0B2
:103B4000089007918DF81B20059305980190FDF7CB
:103B5000F9FB024601980C99891A08440390FDF775
:103B6000F1FB0290039840F20401C2F200010968DF
:103B7000C1F3CB3148430490FFE7089800688068A0
:103B800007990840401AB0FA80F040099DF81B10D0
:103B900088425FD0FFE705980130002859D0FFE741
:103BA000FDF7D0FB0299401A0399884204D2FFE73F
:103BB0000398002842D1FFE708980168486820F080
:103BC000E000486008984068B0F5827F13D1FFE7B5
:103BD00008988068B0F5004F06D0FFE70898806825
:103BE000B0F5806F07D1FFE708980168086820F0FA
:103BF00040000860FFE70898806AB0F5005F0FD1C9
:103C0000FFE7FFE708980168086820F400500860A3
:103C100008980168086840F400500860FFE7FFE773
:103C20000899012081F85100FFE70899002081F8E8
:103C30005000FFE703208DF827000FE0049818B923
:103C4000FFE70020039003E0049801380490FFE7A9
:103C5000FFE792E700208DF82700FFE79DF8270097
:103C60000AB080BD7047000080B582B00090009817
:103C70000138B0F1807F03D3FFE70120019019E004
:103C8000009801384EF21401CEF2000108604FF0A6
:103C9000FF300F2101F062FB4EF21801CEF200015D
:103CA000002008604EF21002CEF2000207211160DF
:103CB0000190FFE7019802B080BD000080B5FDF7DC
:103CC00047FB80BD4EF68851CEF20001086840F4F3
:103CD000700008607047000080B540F2D000C2F26A
:103CE0000000FFF715F880BD83B0029001910298A3
:103CF0000068009002980021C4F20101884225D09A
:103D0000FFE70298B0F1804F20D0FFE7029840F221
:103D10000041C4F20001884218D0FFE7029840F643
:103D20000001C4F20001884210D0FFE7029840F67B
:103D30000041C4F20001884208D0FFE7029840F237
:103D40000041C4F2010188420AD1FFE7009820F047
:103D50007000009001984168009808430090FFE7C8
:103D600002980021C4F20101884255D0FFE7029871
:103D7000B0F1804F50D0FFE7029840F20041C4F20A
:103D80000001884248D0FFE7029840F60001C4F2E3
:103D90000001884240D0FFE7029840F60041C4F29B
:103DA0000001884238D0FFE7029840F20041C4F297
:103DB0000101884230D0FFE7029844F20001C4F2CA
:103DC0000101884228D0FFE7029844F20041C4F282
:103DD0000101884220D0FFE7029844F60001C4F2B6
:103DE0000101884218D0FFE7029841F60001C4F2B1
:103DF0000001884210D0FFE7029841F60041C4F26A
:103E00000001884208D0FFE7029842F20001C4F2A4
:103E1000000188420AD1FFE7009820F4407000902A
:103E20000198C168009808430090FFE7009820F0CF
:103E300080000199496908430090019880680299BF
:103E4000C862019800680299886202980021C4F251
:103E50000101884208D0FFE7029840F20041C4F215
:103E60000101884205D1FFE70198006902990863C2
:103E7000FFE70299086840F00400086002990120F9
:103E8000486100980299086003B0704780B582B01D
:103E900001900198806B009000990020C8850098DF
:103EA000FFF7F2F802B080BD80B584B00390002027
:103EB00002900398806B0190019800684069C0B23D
:103EC000C0090290019890F8410021280AD1FFE72B
:103ED000029838B1FFE701990020C884019800F0EA
:103EE00013F9FFE7019800684069C0F38010029061
:103EF000019890F8420022280AD1FFE7029838B1D1
:103F0000FFE701990020C885019800F09FF8FFE7BE
:103F10000199486C40F0100048640198FFF7B4F82C
:103F200004B080BD80B586B005900598806B049084
:103F3000059800680068C00500285AD4FFE7049976
:103F40000020C885FFE7FFE70498006850E8030FEA
:103F500020F480700390FFE703990498026842E818
:103F600003100028F0D1FFE7FFE7FFE7FFE7049821
:103F7000006850E8050F20F001000290FFE7029969
:103F80000498026842E805100028F0D1FFE7FFE737
:103F9000FFE7FFE70498006850E8050F20F04000B5
:103FA0000190FFE701990498026842E80510002893
:103FB000F0D1FFE7FFE70499202081F84200049840
:103FC000006B012814D1FFE7FFE7FFE704980068C2
:103FD00050E8030F20F010000090FFE700990498CC
:103FE000026842E803100028F0D1FFE7FFE7FFE78F
:103FF000FFE70499002048630498006B012805D16D
:10400000FFE70498818DFFF715F803E00498FFF7A8
:1040100039FBFFE706B080BD80B582B00190019802
:10402000806B00900099012048630098006B012884
:1040300006D1FFE70098818D4908FEF7FBFF03E0FA
:104040000098FFF723FBFFE702B080BD84B0039028
:10405000FFE7FFE70398006850E8030F20F4907033
:104060000290FFE702990398026842E803100028D3
:10407000F0D1FFE7FFE7FFE7FFE70398006850E8AC
:10408000050F20F001000190FFE7019903980268F5
:1040900042E805100028F0D1FFE7FFE70398006B26
:1040A000012814D1FFE7FFE7FFE70398006850E815
:1040B000030F20F010000090FFE7009903980268BA
:1040C00042E803100028F0D1FFE7FFE7FFE703997C
:1040D000202081F8420003990020086304B0704753
:1040E00080B582B0019001980168C86820F0400056
:1040F000C8600199202081F841000198FFF7CAFAB1
:10410000002002B080BD000082B00190FFE7FFE711
:104110000198006850E8030F20F0C0000090FFE70E
:1041200000990198026842E803100028F0D1FFE7E7
:10413000FFE70199202081F8410002B0704700009C
:1041400080B586B00490002003900290049890F807
:104150004200222840F0A080FFE704988068B0F574
:10416000805F13D1FFE70498006978B9FFE70498EE
:10417000806A02900498006840686FF35F2002999B
:1041800008800499886A0230886223E00498806A73
:10419000039004988068B0F5805F08D0FFE704982A
:1041A000806850B9FFE70498006930B9FFE70498C8
:1041B000006840680399087007E004980068406848
:1041C00000F07F0003990870FFE70499886A0130C6
:1041D0008862FFE70499C88D0138C885000400286B
:1041E00056D1FFE704980168C86820F02000C86035
:1041F00004980168C86820F48070C8600498016859
:10420000486920F0010048610499202081F84200AB
:104210000499002048630498006B012830D1FFE71F
:10422000049900200863FFE7FFE70498006850E85E
:10423000030F20F010000190FFE701990498026835
:1042400042E803100028F0D1FFE7FFE70498006878
:104250000068C00600280ED5FFE7FFE700200090A9
:104260000498006800680090049800684068009016
:104270000098FFE7FFE70498818DFEF7DBFE03E07F
:104280000498FFF7FFF9FFE700208DF8170007E01B
:1042900000208DF8170003E002208DF81700FFE7DB
:1042A0009DF8170006B080BD80B586B005900598D2
:1042B0000068006920F44050059A1168D2681043E4
:1042C0000861059988680B694A69C96918431043F0
:1042D0000843049005980068C06849F20C6188435F
:1042E0000499084305990968C86005980068406901
:1042F00020F44070059A116892691043486105984E
:10430000006841F20001C4F20101884209D0FFE7D0
:104310000598006841F20041C4F20101884204D1CD
:10432000FFE7FDF71BFA039003E0FDF705FA0390A2
:10433000FFE70598C069B0F5004F29D1FFE7039862
:104340001921A0FB0101059A1368029353685A00D2
:10435000DB0FFBF737FF0299864648F21F53C5F281
:10436000EB13AEFB0320420910014FF0640C02FB7B
:104370001CEC322202EBCC02A2FB0332F82303EA4C
:10438000521300EB4300C2F342121044886026E04F
:1043900003981921A0FB0101059A13680193536842
:1043A0009A009B0FFBF70EFF0199844648F21F52BB
:1043B000C5F2EB12ACFB02304309642003FB10CCC6
:1043C000322000EB0C10A0FB0202F02000EA521099
:1043D00000EB0310C2F3431210448860FFE706B0FD
:1043E00080BD000080B58AB008900791ADF81A2012
:1043F000079808998862BDF81A0008998885089975
:1044000000204864089A222182F842100899CA6B59
:1044100043F62571C0F60001D1630899CA6B44F2D6
:104420001901C0F6000111640899CA6B43F6A9612D
:10443000C0F60001D1640899C96B086507A805900A
:1044400008980168C06B0431059A1268BDF81A30EB
:10445000FCF7D2FC58B1FFE708991020486408998E
:10446000202081F8420001208DF827004EE0FFE770
:10447000002004900898006800680490089800687C
:10448000406804900498FFE708980069A0B1FFE72E
:10449000FFE7FFE70898006850E8030F40F48070DA
:1044A0000390FFE703990898026842E80310002888
:1044B000F0D1FFE7FFE7FFE7FFE7FFE708980068B5
:1044C00050E8050F40F001000290FFE702990898BC
:1044D000026842E805100028F0D1FFE7FFE7FFE798
:1044E000FFE70898006850E8050F40F04000019091
:1044F000FFE701990898026842E805100028F0D10A
:10450000FFE7FFE700208DF82700FFE79DF8270071
:104510000AB080BD83B00190019890F84100212835
:104520003AD1FFE701988068B0F5805F13D1FFE7CB
:104530000198006978B9FFE70198006A0090009837
:1045400000886FF35F200199096848600199086A43
:104550000230086208E0019A106A411C116200787A
:10456000019909684860FFE70199C88C0138C8843F
:10457000000468B9FFE701980168C86820F080006E
:10458000C86001980168C86840F04000C860FFE753
:1045900000208DF80B0003E002208DF80B00FFE7F0
:1045A0009DF80B0003B0704780B540F21810C2F2BE
:1045B0000000FEF76DFD80BDFFE7FEE780B500F06F
:1045C0000DFF80BD80B500F011FF80BD80B588B0C3
:1045D0000020C4F2020005901021069100220392EF
:1045E000FCF798FE7E20B621019100F07FF80A20AA
:1045F0000490FCF763FC0598069901220792FCF7EA
:1046000089FE039A079940F20040C4F2020002902A
:10461000FCF780FE0199142000F068F86420FCF794
:104620004DFC0698822100F061F80498FCF746FCE6
:104630000298079A1146FCF76DFE039A05980699B1
:10464000FCF768FE0498FCF739FC7D20042100F09B
:104650004DF80498FCF732FC05980699079AFCF788
:1046600059FE08B080BD000085B08DED040ACDED87
:10467000030A8DED021ACDED011A8DED002A9DED94
:10468000040A9DED033A30EE430A9DED002A9DEDAC
:10469000011A32EE412A20EE020A9DED022A32EE84
:1046A000432A80EE020A30EE010A05B0704700008E
:1046B00080B582B001908DF8031001999DF8032018
:1046C00040F27800C2F200004FF47A73FDF73AFD31
:1046D000FFE740F27800C2F20000FDF739FC042841
:1046E00001D1FFE7F5E702B080BD000080B582B0E0
:1046F0008DF807008DF806109DF8070000F07F0088
:1047000000F006F89DF8060000F002F802B080BD47
:1047100080B582B08DF8070040F27800C2F2000048
:104720000DF1070101224FF47A73FDF733FEFFE725
:1047300040F27800C2F20000FDF70AFC032801D124
:10474000FFE7F5E702B080BD80B594B008A830213E
:10475000FBF770FD002007900690059004900390F1
:10476000FFE70020029043F64000C4F20200016817
:1047700041F080510160006800F080500290029882
:10478000FFE7FFE70020019047F20000C4F20000BD
:10479000016841F480410160006800F480400190AC
:1047A0000198FFE7012008904FF480300990022023
:1047B0000E904FF480010F9106211091A8211191C4
:1047C00012900420139008A8FDF762F818B1FFE7D3
:1047D000FCF72EF8FFE70F20039002200490002042
:1047E00005904FF4A05006904FF48050079003A816
:1047F0000521FCF763FE18B1FFE7FCF719F8FFE7A6
:10480000FCF78EFF14B080BD80B586B08DF8170020
:1048100004918DF80F200020C4F202001021012223
:104820000292FCF777FD029940F20040C4F20200C8
:1048300001900022FCF76EFD9DF8170040F080000B
:10484000FFF766FF04989DF80F10FFF731FF0198FE
:10485000029A1146FCF75EFD06B080BD80B586B0B9
:104860008DF8170004918DF80F2040F20040C4F23B
:104870000200012202921146FCF74CFD0020C4F216
:1048800002000090102101910022FCF743FD9DF8E9
:10489000170040F08000FFF73BFF02990498FFF7F4
:1048A00007FF04989DF80F10FFF702FF0098019989
:1048B000029AFCF72FFD06B080BD000080B588B0DD
:1048C00007900799049108684A688B68D1F80CC072
:1048D000C1F82CC08B624A620862088A088691F887
:1048E000200091F8212040EA02206FF3DF20ADF88C
:1048F0001A0091F8210091F82220C00840EA4210E5
:104900006FF3DF20ADF8180091F8220091F8233002
:1049100091F82420800940EA830040EA82206FF366
:10492000DF20ADF8160091F8240091F8251040081A
:1049300040EAC1106FF3DF20ADF81400BDF8160097
:1049400000EE100AB8EE400ADFED2E0ACDED000AA7
:104950009FED2D1A8DED011AFFEE001ACDED021A12
:10496000B7EE002A8DED032AFFF77EFEDDED000A8B
:104970009DED011ADDED021A9DED032A049880EDEC
:10498000100ABDF8140000EE100AB8EE400AFFF756
:104990006BFEDDED000A9DED011ADDED021A9DEDC5
:1049A000032A049880ED110ABDF81A0000EE100ADF
:1049B000B8EE400AFFF758FEDDED000A9DED011A42
:1049C000DDED021A9DED032A049880ED120ABDF870
:1049D000180000EE100AB8EE400AFFF745FE0499F1
:1049E00081ED130A91F825008009086591F82500EA
:1049F000C0F301104865FCF7A5FC0499C86508B030
:104A000080BD00BF0000B6430080D24482B0019058
:104A1000009101980021C161816141610161C16022
:104A2000816041600160C163816341630163C16270
:104A3000816241620162016441648164C164032254
:104A400002654265009A8265C16502B07047000048
:104A500080B592B0119011980E9000F10C01412098
:104A600001220792FFF7FAFE0E9912200622FFF7A5
:104A7000F5FE07980E990A784B7842EA0322ADF8C2
:104A800042208A78CB7842EA0322ADF840200A79A6
:104A90004B7942EA0322ADF83E20BDF9422000EEF8
:104AA000102AB8EEC00A9FED601A8DED061A80EE4E
:104AB000010A097B0131884001EE100AB8EEC11AE3
:104AC00020EE010A10EE100AFBF7B1FC41EC100BCE
:104AD00051EC100B9FED520B53EC102B09930892E5
:104AE000FBF7C4FB41EC100B8DED000B40F208000E
:104AF000C2F200000A900068FBF799FC9DED001BD4
:104B000041EC100B51EC110B53EC102BFBF7AEFBEF
:104B100041EC100B51EC100BFBF79CFC9DED061AC1
:104B20000E99024607980A61BDF9402000EE102A4E
:104B3000B8EEC00A80EE010A097B0131884001EE1F
:104B4000100AB8EEC11A20EE010A10EE100AFBF7A7
:104B50006EFC089A099B41EC100B51EC100BFBF713
:104B600085FB02460A9803920A46039942EC101B01
:104B70008DED040B0068FBF75AFC9DED041B41EC26
:104B8000100B51EC110B53EC102BFBF76FFB41ECAE
:104B9000100B51EC100BFBF75DFC9DED061A0E9906
:104BA000024607984A61BDF93E2000EE102AB8EE91
:104BB000C00A80EE010A097B0131884001EE100A2B
:104BC000B8EEC11A20EE010A10EE100AFBF72FFC16
:104BD000089A099B41EC100B51EC100BFBF746FBBC
:104BE00002460A980B920A460B9942EC101B8DED77
:104BF0000C0B0068FBF71BFC9DED0C1B41EC100B34
:104C000051EC110B53EC102BFBF730FB41EC100B6C
:104C100051EC100BFBF71EFC0E99886112B080BDA1
:104C2000000000000000F83F0000004780B588B099
:104C300006A9029107900798039000F10D010F203B
:104C400001220192FFF7E0FD019A02990398437B4C
:104C50009A4000EE102AB8EEC01A9FED260A80EEA8
:104C6000010A81ED000A811D02200622FFF7CCFD1A
:104C7000029903988279C37942EA0322ADF816209B
:104C8000027A437A42EA0322ADF81420827AC37A88
:104C900042EA0322ADF81220BDF9162000EE102AD8
:104CA000B8EEC00A91ED001A20EE010A9FED121A2B
:104CB00080EE010A80ED070ABDF9142000EE102AEB
:104CC000B8EEC00A91ED002A20EE020A80EE010A39
:104CD00080ED080ABDF9122000EE102AB8EEC00AD5
:104CE00091ED002A20EE020A80EE010A80ED090A09
:104CF00008B080BD0000744200007A44000000004B
:104D000080B59CB01B90ADF86A101B98149090ED84
:104D1000050AD0ED060A00F0AFFB14988DED190AD4
:104D200090ED040A8DED000A90ED050A90ED061A4B
:104D300021EE011A20EE000A30EE010A00F0BAFE60
:104D4000F0EE400A9DED000A00F096FB1498B1EEDB
:104D5000400A8DED180A90ED070A8DED020AC06A2F
:104D6000FBF765FB41EC100B51EC100B9FEDFC0BBE
:104D700053EC102B0B930A92FBF778FA41EC100BD3
:104D800051EC100B9FEDF80B53EC102B0D930C9284
:104D9000FBF7DEFA41EC100B51EC100BFBF75AFB62
:104DA00000EE100A00F0BEFD14988DED010A006BB4
:104DB000FBF73DFB0A9A0B9B41EC100B51EC100BDF
:104DC000FBF754FA0C9A0D9B41EC100B51EC100BB5
:104DD000FBF7BEFA41EC100B51EC100BFBF73AFB62
:104DE00000EE100A00F09EFD1498B0EE401A9DED02
:104DF000010A20EE010A8DED030AC06AFBF717FBDA
:104E00000A9A0B9B41EC100B51EC100BFBF72EFA9E
:104E10000C9A0D9B41EC100B51EC100BFBF798FA20
:104E200041EC100B51EC100BFBF714FB00EE100AD9
:104E300000F078FC9DED021A1498B0EE402A9DED2A
:104E4000030A80EE020A90ED082A20EE020A30EEF4
:104E5000010A8DED050A006BFBF7E9FA0A9A0B9B34
:104E600041EC100B51EC100BFBF700FA0C9A0D9B68
:104E700041EC100B51EC100BFBF76AFA41EC100BF4
:104E800051EC100BFBF7E6FA00EE100A00F04AFCBA
:104E900014988DED040AC06AFBF7C9FA0A9A0B9BB5
:104EA00041EC100B51EC100BFBF7E0F90C9A0D9B49
:104EB00041EC100B51EC100BFBF74AFA41EC100BD4
:104EC00051EC100BFBF7C6FA00EE100A00F02AFDB9
:104ED0001498B0EE401A9DED040A20EE010A8DED03
:104EE000060AC06AFBF7A3FA0A9A0B9B41EC100B67
:104EF00051EC100BFBF7BAF90C9A0D9B41EC100B1F
:104F000051EC100BFBF724FA41EC100B51EC100B99
:104F1000FBF7A0FA00EE100A00F004FC9DED051A64
:104F20001498B0EE402A9DED060A20EE020A90ED9C
:104F3000092A20EE020A30EE010A8DED170A006BF5
:104F4000FBF775FA0A9A0B9B41EC100B51EC100B16
:104F5000FBF78CF90C9A0D9B41EC100B51EC100BEC
:104F6000FBF7F6F941EC100B51EC100BFBF772FA62
:104F700000EE100A00F0D6FB14988DED080A90EDB3
:104F8000080A8DED070A006BFBF751FA0A9A0B9B92
:104F900041EC100B51EC100BFBF768F90C9A0D9BD0
:104FA00041EC100B51EC100BFBF7D2F941EC100B5C
:104FB00051EC100BFBF74EFA00EE100A00F0B2FCB9
:104FC0009DED072A1498B0EE401A9DED080A90ED69
:104FD000093A21EE031A20EE020A30EE410A8DED65
:104FE000160A006BFBF723FA0A9A0B9B41EC100B95
:104FF00051EC100BFBF73AF90C9A0D9B41EC100B9E
:1050000051EC100BFBF7A4F941EC100B51EC100B19
:10501000FBF720FA00EE100A00F084FC14988DEDE6
:10502000090AC06AFBF703FA0A9A0B9B41EC100BC2
:1050300051EC100BFBF71AF90C9A0D9B41EC100B7D
:1050400051EC100BFBF784F941EC100B51EC100BF9
:10505000FBF700FA00EE100A00F064FB1498B0EEC3
:10506000401A9DED090A80EE010A8DED100A90EDBF
:10507000080A8DED0F0A006BFBF7D9F90A9A0B9B12
:1050800041EC100B51EC100BFBF7F0F80C9A0D9B58
:1050900041EC100B51EC100BFBF75AF941EC100BE3
:1050A00051EC100BFBF7D6F900EE100A00F03AFBBA
:1050B00014988DED0E0AC06AFBF7B9F90A9A0B9B9A
:1050C00041EC100B51EC100BFBF7D0F80C9A0D9B38
:1050D00041EC100B51EC100BFBF73AF941EC100BC3
:1050E00051EC100BFBF7B6F900EE100A00F01AFBBA
:1050F0009DED0E1A9DED0F2A1498B0EE403A9DEDED
:10510000100A81EE031A90ED093A21EE031A20EEFF
:10511000020A30EE410A8DED150A9DED190A9DED4A
:10512000171A30EE410ABDF86A1001EE101AB8EEF7
:10513000C11A20EE010A9FED5A1A8DED111A80EE68
:10514000010A40F20C01C2F20001129191ED002A15
:1051500090ED0C1A20EE020A00F00AB800BF00BF62
:10516000112D4454FB2109400000000000806640DE
:1051700030EE010A80ED0C0A90ED0C0ADFED490AD1
:10518000CDED130A00F076FB9DED111A1299DDEDBD
:10519000130A149880ED0C0A9DED180A9DED162A4D
:1051A00030EE420ABDF86A2002EE102AB8EEC22A9A
:1051B00020EE020A80EE010A91ED003A90ED0B2AF2
:1051C00020EE030A30EE020A80ED0B0A9DED150A6F
:1051D000BDF86A2002EE102AB8EEC22A20EE020ABA
:1051E00080EE010A91ED002A90ED0A1A20EE020AE3
:1051F00030EE010A80ED0A0A90ED0C0A00F03AFB4D
:10520000149880ED0C0A90ED0C0AB5EE400AF1EE10
:1052100010FA0ADAFFE7149890ED0C0A9FED211AB4
:1052200030EE010A80ED0C0AFFE7149890ED0B0AAE
:10523000DFED1C0A00F01EFB149880ED0B0A90EDC8
:105240000B0AB5EE400AF1EE10FA0ADAFFE71498FD
:1052500090ED0B0A9FED131A30EE010A80ED0B0A58
:10526000FFE7149890ED0A0ADFED0E0A00F002FB4A
:10527000149880ED0A0A90ED0A0AB5EE400AF1EEA4
:1052800010FA0ADAFFE7149890ED0A0A9FED051A62
:1052900030EE010A80ED0A0AFFE71CB080BD00BFB6
:1052A00000007A440000B44387B00590059802904E
:1052B00006900022014601F8062B0130039104906C
:1052C000FFE70499039A002001F8010B0846914278
:1052D0000490F6D1FFE7029900208871C81D0C31B7
:1052E00000910190FFE70199009A002001F8010B5D
:1052F000084691420190F6D1FFE702990020087319
:10530000487388614861086148620862C86108633F
:10531000C8628862069807B07047000081B08DF8B7
:1053200003009DF9030000280ED4FFE79DF9031048
:1053300001F01F02012090404A094EF20011CEF206
:10534000000141F82200FFE701B070474EF60C5013
:10535000CEF200000068C0F30220704782B08DF8E2
:10536000070000919DF9070000280AD4FFE7009884
:1053700000019DF907104EF20042CEF2000288545F
:105380000BE0009800019DF8071001F00F014EF6A8
:105390001452CEF200028854FFE702B070470000BA
:1053A00083B00290029800F0070000904EF60C5176
:1053B000CEF200010868019001984FF6FF021040FC
:1053C00001900198009A40EA02200022C0F2FA52AD
:1053D000104301900198086003B0704780B540F217
:1053E0006010C2F20000FFF75FFF80BD80B540F2A1
:1053F0009410C2F2000040F21811C2F20001FFF74F
:1054000005FB80BD80B582B000200190FBF7AEFFA8
:10541000FFF79AF9FEF762F9FEF742F9FEF7F8F99D
:10542000FEF71EFAFEF74AFAFFF7D0F840F2D00076
:10543000C2F20000FDF7ECFB40F21810C2F20000CF
:1054400040F29411C2F200012022FDF797FDFFE720
:10545000FEE74100080218BF04200A0E18BF40F002
:1054600001004FF07F4232EA010108BF40F0020024
:10547000012808BF0520704770B54FF068422DED38
:10548000048BF0EE408A18EE900AB0EE608A18EEB7
:10549000101A02EB4003B3F1654F3CBF02EB41022F
:1054A000B2F1654F7DD200BFC0F3C753C1F3C752FD
:1054B0009A1A1B2A09DD10F0004F14BF9FED830AD2
:1054C0009FED830ABDEC048B70BD12F11A0F36DA22
:1054D00011F0004F09D010F0004F0CBF9FED7D0A76
:1054E0009FED7D0ABDEC048B70BD88EE889A19EEA5
:1054F000100AFFF7AEFF042808BF00F007FB18EE04
:10550000900AFFF7A6FF054618EE100AFFF7A1FF65
:10551000044619EE100AFFF79CFF042D18BF052D55
:1055200008D1042C18BF052C04D1002804BF022088
:1055300000F0AEFBB0EE490ABDEC048B70BD42003A
:10554000B2EB410F3AD910F0004F19BFDFED630AFB
:105550009FED630ADFED630A9FED630AB0EE481A20
:105560000A46B1EE688A80F00041F0EE418A1046AA
:105570000A1A5200B2F1807F34D2484010F0004F36
:10558000DFED5A1A9FED5A2A1DBFBEEE001A70EECB
:10559000E10A30EE420AB6EE001A08BF70EEA10A28
:1055A00000E040E008BF30EE020AB0EE682A01EEEB
:1055B000482A08EE818AC2EE081A15E011F0004F61
:1055C00004BF9FED4C0AF0EE400AD1D010F0004F1E
:1055D00019BFDFED490A9FED490ADFED490A9FED4A
:1055E000490AC5E7C8EE881A21EEA11A9FED462A9E
:1055F000DFED462A41EE022A9FED452A01EE222ADE
:10560000DFED442A41EE022A9FED432ABDEC048BD4
:1056100001EE222A21EE811A01EE020A30EE210A61
:1056200030EE200A70BD4FF07F42B2EB400F28BF32
:10563000B2EB410F09D2F0EE480AB0EE680ABDECB9
:10564000048BBDE8704000F055BA40EA01035B00EE
:1056500008BF41F0FF410BD0B2EB400F08BFB2EBE7
:10566000410F08D120F0804008EE900A21F08041DF
:1056700008EE101A18E7B2EB400F12BF5FEA4103C1
:1056800040F0FF4001F000413FF40EAFB2EB410F9C
:1056900012BF5FEA400200F0004041F0FF413FF4DA
:1056A00003AF4A0092EA40033FF5FEAE002AACBFCA
:1056B0009FED1A0A9FED1A0A68EE808A28EE008A8A
:1056C00018EE900A18EE101AEEE60000DB0FC9BFC4
:1056D000DB0FC93FDB0F4940DB0F49C00000C9BFEA
:1056E00022AAFDB90000C93F22AAFD390060ED3EA3
:1056F000C30ACE3700000000000049C022AA7DBACC
:105700000000494022AA7D3A2DAD65BD8FB8D53D38
:105710000FB511BE61C84C3EA8AAAABE0000804FBA
:105720000000802F10EE101A08B5444A6846B2EB0C
:10573000410F28D94FF0E640B0EB410F94BF002055
:105740004FF0FF3000900098002861DB60EE000A07
:1057500010F0010F45D010F0020FDFED391A9FED68
:10576000391A00EEA11ADFED381A40EE811A21EE47
:10577000A01AF0EE400A40EE010A08BFF1EE600AFE
:10578000B0EE600A08BD314B21F0004293423CD993
:1057900011F0004FDFED2E0A20EE201ADFED2D0A6A
:1057A00019BF31EE601A71EE200A31EE201A71EE47
:1057B000600ABDEEE01A11EE100A9FED271A00F004
:1057C000030000EEC10A9FED251A009000EEC10A09
:1057D0009FED231A00EEC10A9FED221A00EEC10AC6
:1057E000B1E79FED211A9FED210A10F0020F00EEA4
:1057F000810A9FED1F1A00EE801AB7EE000A00EE34
:10580000810A18BFB1EE400A08BD00F087F99AE797
:1058100010EE100A4000B0F17F4F3CBFB7EE000A17
:1058200008BD07D14FF0010000F032FABDE8084092
:1058300000F064B9BDE8084000F059B9B61F927E87
:10584000336D4CB9DA82083CA0AA2ABE490E4946FB
:1058500083F9223F0000004B0000C93F00A0FD3942
:105860000020A2331A61342CB93AB2BACA9F2A3D39
:10587000DDFFFFBE10B52DED028BF0EE408A18EE75
:10588000900AB0EE608A20F00040C0F1FF40C00FE7
:1058900007D118EE100A20F00040C0F1FF40C00F01
:1058A0002BD018EE101A18EE900AFAF745FE00EE0B
:1058B000100A10EE100A6FEAD05010F0FF0F04BF6C
:1058C000BDEC028B10BD18EE900A00F0004110EE06
:1058D000100A00F00040814204BFBDEC028B10BDF5
:1058E00018EE101A10EE100ABDEC028B61F31E00C8
:1058F00000EE900A30EE600A10BD18EE900A4FF0EC
:105900007F41B1EB400F1CBF18EE100A5FEA400068
:10591000C7D1012000F0BCF9BDEC028BBDE81040FE
:1059200000F0ECB800B510EE101A2DED028B81B02E
:10593000524A6846B2EB410F2ED94FF0E640B0EB29
:10594000410F94BF00204FF0FF3000900098B0EE60
:10595000408A00286ADB10F0010F4BD068EE080A7D
:105960009FED471A9FED470A00EE810A9FED461A08
:1059700010F0020F00EE801AB7EE000A00EE810A66
:1059800002BF01B0BDEC028B00BD00BF01B0B1EEA3
:10599000400ABDEC028B00BD3C4B21F0004293421B
:1059A00041D911F0004FDFED3A0A20EE201ADFED69
:1059B000390A19BF31EE601A71EE200A31EE201A51
:1059C00071EE600ABDEEE01A11EE100A9FED321A78
:1059D00000F0030000EEC10A9FED301A009000EEC7
:1059E000C10A9FED2F1A00EEC10A9FED2E1A00EE9C
:1059F000C10AABE728EE080A9FED2B1ADFED2B0A50
:105A000010F0020F40EE010A9FED291A00EE201A55
:105A100061EE000AB0EE480A08EE200AB6D101B0E5
:105A2000BDEC028B00BD00F079F88FE718EE100A8C
:105A30004000B0F17F4F0DD218EE100AFFF709FDBC
:105A4000042808BF00F062F8B0EE480A01B0BDECCF
:105A5000028B00BD09D1012000F01AF901B0BDECA4
:105A6000028B5DF804EB00F049B801B0B0EE480AD3
:105A7000BDEC028B5DF804EB00F039B8B61F927EE6
:105A8000B93AB2BACA9F2A3DDDFFFFBE490E494668
:105A900083F9223F0000004B0000C93F00A0FD3900
:105AA0000020A2331A61342C336D4CB9DA82083CE1
:105AB000A0AA2ABE10B52DED028BB1EEC08A18EE59
:105AC000100A20F00040C0F1FF40C00F0AD010EED5
:105AD000100A20F00040C0F1FF40C00F04BF0120B9
