:020000040800F2
:100000004007002029020008611B0008C9190008E8
:100010005D1B0008D5030008FD1D0008000000005E
:10002000000000000000000000000000911C00081B
:10003000D903000800000000691B0008951C000897
:10004000430200084302000843020008430200087C
:10005000430200084302000843020008430200086C
:100060004302000843020008DD03000843020008C1
:10007000430200084302000843020008430200084C
:10008000430200084302000843020008430200083C
:10009000430200084302000843020008E503000889
:1000A000430200084302000843020008430200081C
:1000B000430200084302000843020008430200080C
:1000C00043020008430200084302000843020008FC
:1000D00043020008430200084302000843020008EC
:1000E00043020008430200084302000843020008DC
:1000F00043020008430200084302000843020008CC
:1001000043020008430200084302000843020008BB
:100110004302000843020008AD1C00084302000827
:10012000430200084302000843020008430200089B
:10013000430200084302000843020008430200088B
:10014000430200084302000843020008430200087B
:10015000430200084302000843020008430200086B
:10016000430200084302000843020008430200085B
:100170004302000843020008430200080000000098
:10018000430200084302000800F002F800F03CF8C7
:100190000AA090E8000C82448344AAF10107DA45E2
:1001A00001D100F031F8AFF2090EBAE80F0013F0F8
:1001B000010F18BFFB1A43F001031847D0200000BD
:1001C000F0200000103A24BF78C878C1FAD852074E
:1001D00024BF30C830C144BF04680C6070470000C1
:1001E0000023002400250026103A28BF78C1FBD840
:1001F000520728BF30C148BF0B6070471FB502F0DF
:100200002FF81FBD10B510BD00F0A9F81146FFF77B
:10021000F5FF02F013F800F0C7F803B4FFF7F2FFA0
:1002200003BC00F0CFF800000948804709480047A8
:10023000FEE7FEE7FEE7FEE7FEE7FEE7FEE7FEE796
:10024000FEE7FEE704480549054A064B70470000F3
:10025000991C000889010008400100204007002087
:10026000400300204003002053EA020C00F06980A4
:100270002DE9F04B4FF00006002B1FBFB3FA83F5BA
:1002800003FA05F424FA05F65E4012BF1643B2FAEB
:1002900082F502FA05F4C5F120051EBF22FA05FC1D
:1002A00044EA0C04203556EA044C4FEA144418BFC3
:1002B000641C4FF000084FF00009904271EB030CF2
:1002C00039D3002919BFB1FA81F701FA07F6B0FA5C
:1002D00080F700FA07F6C7F120071EBF20FA07FCD7
:1002E00046EA0C062037B6FBF4FCA7EB0507103FE7
:1002F00007F01F0BCBF120062CFA06F60CFA0BFBCD
:1003000044BFB3460026202FA4BF5E464FF0000B2B
:100310005BEA060C08BF4FF0010B19EB0B0948EB29
:100320000608ABFB027C06FB02CC0BFB03CCC01B1C
:1003300071EB0C01C1E70B46024641464846BDE859
:10034000F08B13B5084318BF4FF0FF300146AFF3F1
:100350000080BDE81C407047704770477047754685
:1003600000F02CF8AE4605006946534620F0070021
:10037000854618B020B5FFF765FFBDE820404FF077
:1003800000064FF000074FF000084FF0000BAC469E
:10039000ACE8C009ACE8C009ACE8C009ACE8C009E9
:1003A00021F007018D46704710B50446AFF3008079
:1003B0002046BDE81040FFF730BF000000487047FE
:1003C0001000002001491820ABBEFEE72600020005
:1003D00070470000FEE7000070470000102000F0AA
:1003E0001DB80000202000F019B8000072B600000F
:1003F000B0B5044600F0F8F8054640F20000C2F23D
:1004000000000078611C18BF044400BF00F0ECF845
:10041000401BA042FAD3B0BD7047000043F6144120
:10042000C4F201010A68024214BF08607047FFF776
:10043000F3BF00002DE9F04F82B000F13E4241F6DB
:10044000004502F1FF77C4F20205082243F6004E90
:100450004FEAB726A84208BF0722C4F2010E072EB2
:1004600038BF4FEAB7220125002600274FF00008C9
:10047000009208E008F101080437B8F1100F06F106
:10048000020600F0A7800C6805FA08F914EA090FC3
:10049000F0D0D1F804B003220BF0030CACF101044E
:1004A000B240012C6FEA020A10D88268CC6802EAD6
:1004B0000A02B440224382604268CBF3001422EA6D
:1004C000090204FA08F42243426005E0BCF1030F7C
:1004D00002D14FF0030C20E0C2688C6802EA0A02E5
:1004E000B4402243BCF1020FC26016D16FF0030288
:1004F00002EA58020244D2F820C007F01C050F237C
:100500000C69AB402CEA030304FA05F52B43136294
:10051000D1F804B001250BF0030C02680CFA06F3C5
:1005200002EA0A021A431BF4403F0260A2D00022F2
:1005300043F644030192C4F202031A684FF6084CD2
:1005400042F480421A601A68CFF6FF7C02F48042BF
:100550000192019A28F00302724452F80C3007F01D
:100560000C050F24AC40A343009C04FA05F52B4373
:1005700042F80C30DEF808204B6842EA090543F6E1
:100580000C4CDC0258BF22EA0905CEF80850C4F230
:10059000010CDCF800209C0242EA090558BF22EA5F
:1005A0000905CCF80050DEF804209C0342EA090556
:1005B00058BF22EA0905CEF80450DEF80020DB031C
:1005C00042EA090558BF22EA0905CEF80050012584
:1005D00050E700BF02B0BDE8F08F0000002A08BF5E
:1005E000090481617047000040F23810C2F2000037
:1005F0000068704740F2000040F23811C2F200007B
:10060000C2F2000100780A681044086070470000D8
:1006100080B543F60040C4F20200016841F4007165
:100620000160016841F480610160016841F48071FA
:100630000160032000F088F80F2000F005F800F0BA
:1006400027F8002080BD000070B540F20006C2F21D
:10065000000640F208013278C2F200014FF47A73CA
:100660000968B3FBF2F20446B1FBF2F1084600F070
:10067000C7FF0F2C4FF0010508D838B94FF0FF30F5
:1006800021460022002500F033F87460284670BD32
:1006900082B0002043F640010190C4F202014A6892
:1006A00042F480424A604A6802F480420192019A10
:1006B0000090086840F080500860086800F08050A2
:1006C0000090009802B07047002848BF7047C1B240
:1006D00000F01F00012202FA00F04EF20012CEF2EA
:1006E000000242EAD10121F00301086070470000D6
:1006F00010B54EF60C5CCEF2000CDCF80030C3F303
:10070000022E8EF00704042C28BF0424BEF103033C
:100710004FF0FF3E0EFA04F438BF0023A143994086
:100720000EFA03F39A43114300F00F0200F1604305
:100730000901043A03F564436244002848BF02F10A
:100740000C03197010BD00004EF60C51CEF20001E2
:100750000A684FF6FF031A4060F30A2242F08060F5
:1007600040F0FD7008607047704700002DE9F041CF
:10077000002800F08B8043F60808C4F20208044603
:10078000D8F8F8030D4600F00700884207D288F831
:10079000F853D8F8F80300F00700A84276D1206893
:1007A000810717D5410705D5D8F8001041F4E0516D
:1007B000C8F80010010705D5D8F8001041F46041D1
:1007C000C8F80010D8F80010A26821F0F001114319
:1007D000C8F80010C0073FD1D8F8F80300F00700B0
:1007E000A84207D988F8F853D8F8F80300F00700B2
:1007F000A8424BD12068410707D5D8F80010E2681D
:1008000021F4E0511143C8F80010000708D5D8F8CA
:100810000000216920F4604040EAC100C8F80000EF
:1008200000F05AF8D8F8001042F27A22C1F303110E
:10083000C0F60002515C40F2080220FA01F140F2D9
:100840000400C2F200000068C2F200021160FFF76B
:10085000FBFE0020BDE8F0816068811E022907D2FE
:1008600058F8081C89015CBF0120BDE8F08111E047
:10087000012807D158F8081C89035CBF0120BDE896
:10088000F08107E058F8081C890703D40120BDE86F
:10089000F08100BFD8F8001021F003010843C8F828
:1008A0000000FFF7A1FE064641F28837D8F80000A5
:1008B000616800F00C00B0EB810F8DD0FFF794FE63
:1008C000801BB842F2D90320BDE8F0814C20C4F26D
:1008D000472001210160704710B543F60404C4F2BB
:1008E0000204606800F00C0008280BD0042819BF2F
:1008F00042F20040C0F2F40041F60030C0F2B7000E
:1009000010BD00BF206821682368490241F600310C
:10091000C0F2B70100F03F02C3F388105CBF42F29F
:100920000041C0F2F401A1FB00010023FFF79CFC91
:1009300021680222C1F3014102EB4101B0FBF1F059
:1009400010BD000010B543F60C04C4F20204206888
:10095000000658BF10BDFFF707FF8020A07010BD34
:100960002DE9F04182B0002868D00446007843F6B3
:100970000006C007C4F202060BD0B06800F00C00FD
:10098000042840F09F803068800302D5606800280A
:1009900054D0207880071AD5B06810F00C0F09D019
:1009A000B06800F00C00082840F0A6807068400293
:1009B00000F1A2803068800702D5E06801283DD1AF
:1009C0003068216920F0F80040EAC10030602078EA
:1009D000000737D4207840074CD4A56955B3B068D8
:1009E00000F00C00082840F0BB80012D26D0706874
:1009F000E16900F480028A4220D1216A00F03F02BE
:100A00008A421BD147F6C071626A0140B1EB821F76
:100A100014D1A16A4FF6FF73C903994300F4403221
:100A2000A1F580318A4209D1E16A00F07060B0EB33
:100A3000016F03D1002002B0BDE8F081012002B0B7
:100A4000BDE8F0816069002840F20000C4F2472050
:100A500076D00121C0F8801EFFF7C6FD054600BF15
:100A6000706F8007B6D4FFF7BFFD401B0228F7D98F
:100A7000DDE000BF306C10F080580AD100200190FA
:100A8000306C40F080503064306C00F08050019049
:100A9000019847F20007C4F200073868C00541D446
:100AA000386840F480703860FFF79EFD054600BF4F
:100AB0003868C00536D4FFF797FD401B0228F7D9E8
:100AC000B5E000BFB06800F00C00082803D17068E2
:100AD00040023FF558AF6068B0F5803F07D0B0F5F1
:100AE000A02F40F08D80306840F480203060306866
:100AF00040F4803030608DE0E068002852D0002063
:100B0000C4F2472001210160FFF76EFD054600BFDA
:100B1000306880073FF554AFFFF766FD401B0228A1
:100B2000F6D984E0A068012805D005284ED1306FA1
:100B300040F004003067306F40F0010030674FE054
:100B40000021C0F8801EFFF74FFD0546706F80073B
:100B50007FF540AFFFF748FD401B0228F6D966E05D
:100B60000027C4F2472700203866FFF73DFD022D1D
:100B700005460BD1306880015ED5FFF735FD401B7F
:100B800002284FF00300F5D955E700BF3068800117
:100B90007FF550AFFFF728FD401B02284FF0030000
:100BA000F4D948E70020C4F2472000210160FFF794
:100BB0001BFD0546306880077FF509AFFFF714FD80
:100BC000401B02284FF00300F4D934E7316F0028AE
:100BD00021F001013167316F21F0040131674DD0FF
:100BE000FFF702FD054641F2883700BF306F8007EE
:100BF00056D4FFF7F9FC401BB842F7D917E000BF05
:100C00003168002821F480313160316821F480217D
:100C100031604FD0FFF7E8FC054600BF3068800325
:100C20003FF5B7AEFFF7E0FC401B6428F6D9032080
:100C300002B0BDE8F08100BF04F11C052FCD0843D0
:100C400040EA8210D9034FF6FF729143A1F580313B
:100C500040EA05600843706001203866FFF7C4FC75
:100C6000044600BF306880013FF5E4AEFFF7BCFCEE
:100C7000001B02284FF00300F4D9DCE6FFF7B4FCB8
:100C8000054641F2883700BF306F800708D5FFF76F
:100C9000ABFC401BB8424FF00300F5D9CBE600BFD8
:100CA000B8F1000F7FF499AE306C20F080503064C2
:100CB00093E600BFFFF798FC054600BF306880034D
:100CC0007FF567AEFFF790FC401B64284FF00300F0
:100CD000F4D9B0E690F851007047000070B538B113
:100CE0000446406A30B10020206104F1140007E09E
:100CF000012070BD6068B0F5827F03D004F11C0054
:100D0000002101600026A66294F8510020B9204617
:100D100084F8506000F03CF8022084F8510094E818
:100D20000F0001F48271056802F4044225F04005C9
:100D30000560114403F400622369114403F00202C8
:100D40006369114403F00102A369E569114403F4E6
:100D50000072114405F03802256A114405F0800242
:100D6000A56A114305F4005211430160626A04212F
:100D700001EA134102F0100211444160C16921F4FB
:100D80000061C1610120666584F85100304670BD84
:100D90002DE9F04385B0006843F20005C4F2010577
:100DA000A84203D005B0BDE8F08300BF002643F69B
:100DB00030000096C4F2020041696C4641F4805153
:100DC000416141694FF0020801F48051009100999E
:100DD000009601684FF0030941F0020101600168CB
:100DE000052701F00201009100990096016841F089
:100DF000010101600068214600F0010000900098A8
:100E00001820009005F55440CDE90186CDF80C90EE
:100E10000497FFF70FFB8020CDE9000805F550404F
:100E20002146CDE902690497FFF704FB05B0BDE850
:100E3000F08300002DE9F04182B0044690F85100A3
:100E4000012818D10E4600294FF0010000F0EF8074
:100E50001746002A00F0EB8060681D46B0F5827FDF
:100E600003D1A068002800F0BB80FFF7BDFB94F819
:100E70005010012904D1022002B0BDE8F08100BF6A
:100E80008046012084F850000420002184F851009D
:100E90006165A663A787E7872163A186E186A268CB
:100EA0002068B2F5004F2164616437D001684906BB
:100EB0003FD5E168E08F002943D000287AD0681C34
:100EC0000BD11AE0C068A16B21F8020BA163E08F7F
:100ED0000138E087E08F00286CD020688168C9075E
:100EE000F0D1FFF781FBA0EB0800A842F2D342E06B
:100EF000FFF77AFBE08F00285CD020688168C90783
:100F0000F6D0C068A16B21F8020BA163E08F013815
:100F1000E087E08F0028F0D14CE000BF016821F0AD
:100F200040010160016821F48041016001684906C7
:100F3000BFD4016841F040010160E168E08F002901
:100F4000BBD1B8B3681C0CD124E000BF007BA16BFF
:100F50000870A06B0130A063E08F0138E087E08F5C
:100F600040B320688168C907F0D1FFF73DFBA0EBD3
:100F70000800A842F3D3012084F85100002084F82F
:100F80005000032002B0BDE8F08100BFFFF72CFB4A
:100F9000E08F78B120688168C907F7D0007BA16B2A
:100FA0000870A06B0130A063E08F0138E087E08F0C
:100FB0000028EFD16068B0F5827F0ED1A068B0F54F
:100FC000004F02D0B0F5806F18D12168B0F5806F66
:100FD0000A6822F040020A6010D1204601210FE089
:100FE000042084F851002046314632463B460095A5
:100FF00000F05EF902B0BDE8F08100BF204680211C
:1010000000222B46CDF8008000F0B0FD28B1606DC5
:1010100040F02000606520206065012084F85100C8
:10102000002084F85000606D002818BF012002B035
:10103000BDE8F0812DE9F04184B01D4616460F460B
:101040000446FFF7D1FA94F8511001290ED18046D9
:10105000002F4FF0010018BF002E03D104B0BDE8EF
:10106000F08100BF94F85000012803D1022004B0A1
:10107000BDE8F081012084F850000320002184F8AD
:10108000510061652763A686E686A163A187E18793
:10109000A0682164B0F5004F2068616407D1016841
:1010A00021F040010160016841F480410160016864
:1010B000490603D4016841F0400101606168731E74
:1010C000E268B1FA81F1B3FA83F349095B09B2F539
:1010D000006F41EA030139D131B137F8021BC16019
:1010E0002763E08E0138E086E08E002870D0681C0F
:1010F0000BD11AE0216B31F8022BC2602163E08E24
:101100000138E086E08E002862D020688168890777
:10111000F0D4FFF769FAA0EB0800A842F2D338E058
:10112000FFF762FAE08E002852D0206881688907B4
:10113000F6D5216B31F8022BC2602163E08E0138B5
:10114000E086E08E0028F0D142E000BF39B1397866
:101150000173206B01302063E08E0138E086E08E61
:10116000B0B3681C0BD123E0216B09780173206BAD
:1011700001302063E08E0138E086E08E40B32068C5
:1011800081688907F0D4FFF72FFAA0EB0800A84286
:10119000F3D3012084F85100002084F8500003208C
:1011A00004B0BDE8F08100BFFFF71EFAE08E78B111
:1011B000206881688907F7D5216B09780173206B56
:1011C00001302063E08E0138E086E08E0028EFD108
:1011D0002046022101222B46CDF8008000F0C6FCFB
:1011E000E0B1606D40F02000606520206065A0687F
:1011F00038B9002002902068C1680291806802908E
:101200000298012084F85100002084F85000606D9D
:10121000002818BF012004B0BDE8F08140F20800AA
:10122000C2F20000006849F68171C1F25E61A0FB64
:101230000101480D4FF47A71484303906068B0F59E
:10124000827F0BD12046802100222B46CDF80080E2
:1012500000F08CFC0028C4D1C9E700BF0398002827
:10126000C5D0039801380390206880680006BED579
:1012700003980028BBD00398013803902068806849
:101280000006B4D503980028B1D003980138039024
:10129000206880680006AAD503980028A7D0039884
:1012A00001380390206880680006D7D49FE70000CB
:1012B0002DE9F04383B01E4615460F460446FFF75E
:1012C00093F994F851108146012909D1002F4FF06C
:1012D000010018BF002D0FD103B0BDE8F08300BF9F
:1012E0006068B0F5827F0DD1A06800284FF0020041
:1012F00008BF0429F0D1E9E7002EEDD094F85000A2
:10130000012803D1022003B0BDE8F083012084F856
:10131000500094F85100002104281CBF052084F8D7
:1013200051006165A563E687A6872763E686206886
:10133000A686216461640168490603D4016841F00E
:10134000400101606168731EE268B1FA81F1B3FA8D
:1013500083F3DDF8288049095B09B2F5006F41EAA3
:10136000030165D131B137F8021BC1602763E08EFC
:101370000138E086012518F1010032D102E000BFFA
:10138000FFF732F9E08E18B9E08F002800F0B8803E
:101390002068816889070CD5E18E51B1012D08D1F3
:1013A000216B002531F8022BC2602163E18E0139E7
:1013B000E1868168C907E3D0E18F0029E0D0C068E9
:1013C000A16B012521F8020BA163E08F0138E087B2
:1013D000D6E700BFFFF708F9A0EB0900404580F011
:1013E000A580E08E18B9E08F002800F08980206881
:1013F000816889070CD5E18E51B1012D08D1216B8F
:10140000002531F8022BC2602163E18E0139E186AB
:101410008168C907DED0E18F0029DBD0C068A16BED
:10142000012521F8020BA163E08F0138E087D1E7A5
:1014300039B139780173206B01302063E08E0138B7
:10144000E086012518F1010032D101E0FFF7CCF868
:10145000E08E10B9E08F002852D02068816889079B
:101460000ED5E18E61B1012D0AD1216B00250978DD
:101470000173216B206801312163E18E0139E1861E
:101480008168C907E2D0E18F0029DFD0C068A16B75
:1014900001250870A06B0130A063E08F0138E08760
:1014A000D4E700BFFFF7A0F8A0EB090040453DD20C
:1014B000E08E08B9E08F18B32068816889070ED5DF
:1014C000E18E61B1012D0AD1216B002509780173EC
:1014D000216B206801312163E18E0139E186816849
:1014E000C907DFD0E18F0029DCD0C068A16B0125DE
:1014F0000870A06B0130A063E08F0138E087D1E76E
:101500002046022101224346CDF8009000F02EFB38
:10151000B0B1606D40F02000606520206065002063
:1015200084F85000012003B0BDE8F083012084F866
:101530005100002084F85000032003B0BDE8F08380
:1015400040F20800C2F20000006849F68171C1F261
:101550005E61A0FB0101480D4FF47A71484302908F
:101560006068B0F5827F21D1204680210022434669
:10157000CDF8009000F0FAFA0028CAD1A06838B976
:10158000002001902068C168019180680190019855
:10159000012084F85100002084F85000606D00287C
:1015A00018BF012003B0BDE8F08300BF02980028F7
:1015B000E4D0029801380290206880680006DDD5EA
:1015C00002980028DAD002980138029020688068DA
:1015D0000006D3D502980028D0D002980138029096
:1015E000206880680006C9D502980028C6D00298F5
:1015F00001380290206880680006D7D4BEE700005A
:10160000411E0020B0EB116F1CBF012070474EF24D
:101610001002CEF2000251604EF62351CEF20001CC
:10162000F0230B7007219060116070477047000035
:101630007047000010B590F83C20012A4FF00202DC
:1016400051D080F83D200268D2F804E0D2F808C0FA
:101650000C682EF07003234341F2FF74C4F20004BF
:10166000A24253600EDC40F2FF73C4F200039A42C0
:1016700016DCB2F1804F2BD040F20043C4F20003DD
:1016800024E000BF40F2FF33C4F201039A4213DCAE
:1016900041F60003C4F200039A4219D0002313E07C
:1016A00040F60003C4F200039A4211D040F6004312
:1016B000C4F200030AE000BF44F20003C4F20103D5
:1016C0009A4205D040F20043C4F201039A4204D189
:1016D00049682CF08003194391600121002280F8B1
:1016E0003D1080F83C20104610BD0000002804BFCB
:1016F0000120704710B5044690F83D0028B900203D
:1017000084F83C00204600F01FF8022084F83D00D9
:101710002068211D00F0D0FA012084F8460084F8EA
:101720003E0084F83F0084F8400084F8410084F8CB
:10173000420084F8430084F8440084F8450084F8AB
:101740003D00002010BD000080B582B0006841F26D
:101750000001C4F2000188421CBF02B080BD00201D
:10176000019043F64000C4F202000168002241F0FB
:10177000100101600068022100F010000190019842
:101780003620FEF7B5FF362002B0BDE88040FEF7F8
:101790009BBF000090F83D1001291CBF012070473D
:1017A000022180F83D10006841F2FF72C168C4F266
:1017B0000002904241F00101C1600DDC40F2FF7176
:1017C000C4F20001884215DCB0F1804F2AD040F20B
:1017D0000041C4F2000123E040F2FF31C4F20101F4
:1017E000884213DC41F60001C4F20001884219D09E
:1017F000002113E040F60001C4F20001884211D03C
:1018000040F60041C4F200010AE000BF44F20001CA
:10181000C4F20101884205D040F20041C4F2010146
:10182000884206D1816801F00701062904BF002023
:101830007047016841F0010101600020704700001D
:101840007047000070B504460068C5680669B107B6
:1018500016D515F0020113D06FF0020101610121CC
:1018600021778069800703D02046FFF7E9FF05E074
:10187000204600F08FF8204600F08EF800202077F8
:10188000700719D515F0040016D020686FF0040118
:10189000016102212177806910F4407F04D0204645
:1018A000FFF7CEFF06E000BF204600F073F82046A9
:1018B00000F072F800202077300717D515F00800E7
:1018C00014D020686FF00801016104212177C069FC
:1018D000800703D02046FFF7B3FF05E0204600F065
:1018E00059F8204600F058F800202077F00619D566
:1018F00015F0100016D020686FF01001016108216A
:101900002177C06910F4407F04D02046FFF798FF8C
:1019100006E000BF204600F03DF8204600F03CF80D
:1019200000202077F00718BF15F0010002D1300623
:1019300009D412E020686FF001010161204600F037
:101940002DF8300609D515F0800006D020686FF01C
:10195000800101612046FFF769FE700609D515F088
:10196000400006D020686FF040010161204600F081
:1019700029F8B00658BF70BD15F0200008D02168C6
:101980006FF0200220460A61BDE87040FFF750BEAC
:1019900070BD0000704700007047000040F2C801B1
:1019A000C2F20001884218BF704710B540F210140F
:1019B000C2F20004204600F0B3FB2046BDE8104010
:1019C00000F0F4BB70470000FEE700002DE9F04393
:1019D00087B04FF0000843F63000CDF81880CDF8FE
:1019E0000480C4F202000168002541F00201016098
:1019F0000168C4F2020501F0020101910199CDF8DC
:101A000004800168012241F0010101600168102693
:101A100001F0010101910199CDF8048001680127CD
:101A200041F080010160016801F08001019101999C
:101A3000CDF80480016841F00401016000681021C4
:101A400000F00400019001982846FEF7C7FD05F557
:101A50008064204601210122FEF7C0FDCDE9026726
:101A600002AE4FF00209284631460497CDF8149093
:101A7000FEF7E0FC302002904FF40410CDE903089B
:101A800005F500603146FEF7D5FC20463146CDE92C
:101A90000277CDE90479FEF7CDFC0A20002100226F
:101AA000FEF726FE0A20FEF70FFE17200021002277
:101AB000FEF71EFE1720FEF707FE07B0BDE8F08315
:101AC00080B540F2700043F20001C2F20000C4F29F
:101AD00001014FF48272002380E80E0000F114012E
:101AE0004FF4007C4FF0380E81E808500A21C0E91D
:101AF0000333C0E90833C0E90A31FFF7EFF80028E3
:101B000008BF80BDBDE88040FEF770BC80B582B0E4
:101B100040F2C80041F200020021C2F20000C4F20B
:101B20000002532340F2E73CCDE90011C0E9002355
:101B3000C0E9021C8161FFF7D9FD002818BFFEF73C
:101B400055FC40F2C800C2F200006946FFF772FD82
:101B5000002818BFFEF74AFC02B080BDFEE7000077
:101B6000FEF7F0FEFEE70000704700002DE9F043AD
:101B700081B0089C984615460E468146FEF734FD16
:101B8000201A00EB0804FEF72FFD40F20801C2F214
:101B900000010968C1F3CB3161430091D9F800100D
:101BA0008A683240921BB2FA82F25209AA4203D1E9
:101BB000002001B0BDE8F083074618F101000ED106
:101BC00030E000BF009801380090D9F8000080682C
:101BD0003040801BB0FA80F04009A842E8D0FEF700
:101BE00003FDC01BA04227D200980028EAD10024A0
:101BF000EBE700BF88683040801BB0FA80F04009F6
:101C0000A842D5D088683040801BB0FA80F04009E7
:101C1000A842CDD088683040801BB0FA80F04009DF
:101C2000A842C5D088683040801BB0FA80F04009D7
:101C3000A842DFD1BCE700BFD9E900014268B1F595
:101C4000827F22F0E00242600BD1D9F80810B1F592
:101C5000004F02D0B1F5806F03D1016821F040013F
:101C60000160D9F82810B1F5005F07D1016821F4AF
:101C700000510160016841F400510160012089F8C0
:101C80005100002089F85000032001B0BDE8F08326
:101C900070470000FEF7AEBC4EF68850CEF2000052
:101CA000016841F4700101607047000040F2C80013
:101CB000C2F20000FFF7C6BDB0B540F6FF3E0568B2
:101CC000C4F2000E40F2004C7045C4F2010C27DC57
:101CD000B0F1804F31D040F20043C4F2000398428B
:101CE0002BD040F60003C4F20003984225D041F601
:101CF000FF73C4F2000398422ADC70453CDCB0F16B
:101D0000804F5FD040F20043C4F20003984259D0A4
:101D100040F60003C4F20003984253D057E000BFDE
:101D200040F60043C4F20003984206D0604504D058
:101D30000023C4F201039842D9D14B6825F0700208
:101D400043EA020541F6FF73C4F200039842D4DD72
:101D500043F6FF73C4F20103984221DC42F2000310
:101D6000C4F2000398422DD00023C4F2010398422C
:101D700028D0604526D02AE040F60043C4F2000394
:101D800098421FD041F60003C4F20003984219D0D4
:101D900041F60043C4F20003984213D017E000BF9D
:101DA00044F20003C4F2010398420BD044F600034E
:101DB000C4F20103984205D044F20043C4F2010387
:101DC000984204D1CB6825F4407243EA02050A68C0
:101DD0008C684B69C46240F480648262644504BFCD
:101DE00009690163026825F0800142F00402194389
:101DF0000260012242610160B0BD0000FEE7000008
:101E000070B582B00024C4F20204204610210022E2
:101E1000FEF7E4FB40F270057E20C2F200058DF86B
:101E200002000DF10201284601224FF47A73FFF7F8
:101E300001F900BF2846FEF74DFF0328FAD040F213
:101E40007005B620C2F200058DF803000DF1030104
:101E5000284601224FF47A73FFF7ECF82846FEF784
:101E600039FF0328FAD00120FEF7C2FA20461021DC
:101E70000122FEF7B3FB04F580652846012100220C
:101E8000FEF7ACFB40F270061420C2F200068DF89B
:101E9000040001A9304601224FF47A73FFF7CAF813
:101EA0003046FEF717FF0328FAD040F27006B6203E
:101EB000C2F200068DF805000DF105013046012241
:101EC0004FF47A73FFF7B6F83046FEF703FF0328A6
:101ED000FAD01E20FEF78CFA284601210122FEF7D7
:101EE0007DFB204610210022FEF778FB0120FEF743
:101EF0007FFA40F270057D20C2F200058DF80600E1
:101F00000DF10601284601224FF47A73FFF792F88B
:101F10002846FEF7DFFE0328FAD040F270050420C1
:101F2000C2F200058DF807000DF1070128460122D5
:101F30004FF47A73FFF77EF82846FEF7CBFE0328AE
:101F4000FAD00120FEF754FA204610210122FEF7B4
:101F500045FB02B070BD0000B0B592B0002443F65E
:101F60004000CDE90A44CDE908440594CDE9034495
:101F7000CDE901440094C4F202000168022541F059
:101F800080510160006800F080500090009847F296
:101F900000000094C4F20000016841F48041016037
:101FA000006800F4804000900098012006904FF4F3
:101FB000803007904FF480000D9006200E90A820EE
:101FC000CDE90F050420119006A80C95FEF7C8FC7A
:101FD00090B90F20CDE901054FF4A05004904FF4C3
:101FE0008050059001A805210394FEF7BFFB28B996
:101FF000FEF76CFC12B0B0BD72B600BF72B6000046
:10200000F0B581B040F20044C4F2020415460E4619
:102010000746A4F5806010210122FEF7DFFA204672
:1020200001210022FEF7DAFA47F0800040F2700743
:10203000C2F200078DF803000DF1030138460122BA
:102040004FF47A73FEF7F6FF3846FEF743FE032897
:10205000FAD040F27007C2F20007384631462A46ED
:102060004FF47A73FEF7E6FE3846FEF733FE042897
:10207000FAD0204601210122FEF7B0FA01B0F0BDEE
:10208000F0B581B00024C4F2020415460E4607469E
:1020900004F5806001210122FEF7A0FA20461021FC
:1020A0000022FEF79BFA47F0800040F27007C2F270
:1020B00000078DF803000DF10301384601224FF4AB
:1020C0007A73FEF7B7FF00BF3846FEF703FE03281A
:1020D000FAD040F27007C2F20007384631460122BA
:1020E0004FF47A73FEF7A6FE3846FEF7F3FD042898
:1020F000FAD040F27007C2F20007384631462A464D
:102100004FF47A73FEF796FE3846FEF7E3FD042897
:10211000FAD0204610210122FEF760FA01B0F0BD8E
:1021200010B5044600F10C0141200122FFF7A8FF81
:10213000122021460622FFF7A3FFB4F90000B4F9EC
:102140000210B4F9042000EE100A207B02239FED58
:10215000161A03FA00F004EE101A05EE102AB8EE73
:10216000C00A02EE100AB8EEC44AB8EEC55A20EE14
:10217000010AB8EEC22A24EE014A25EE011A20EE29
:10218000020AB7EE083A24EE024A21EE021A20EEC5
:10219000030A24EE034A21EE031A84ED040A84EDB7
:1021A000054A84ED061A10BD00000038B0B52DEDCB
:1021B000028B044600F10D010F2001220125FFF7DB
:1021C0001FFF607B9FED1B1A05FA00F000EE100A5E
:1021D000B8EEC00AA11D0220062281EE008AFFF798
:1021E0000FFFB4F90600B4F90810B4F90A2000EEA4
:1021F000100A02EE101A03EE102AB8EEC00A9FED84
:102200000E1AB8EEC22AB8EEC33A28EE000A28EE3B
:10221000022A28EE033A80EE010A82EE012A83EEBA
:10222000011A84ED070A84ED082A84ED091ABDEC31
:10223000028BB0BD0000744200007A44FEF7E8F95A
:10224000FFF78AFEFFF7C2FBFFF73AFCFFF75EFCE1
:10225000FFF7D6FD40F2C800C2F20000FFF79AFA7D
:10226000F1EE100A4FF6FF71C0F2C03120EA010012
:1022700040F04070E1EE100A7047000000000000DE
:10228000000001020304060708090000B02200084C
:102290000000002010000000C4010008C022000857
:1022A0001000002030070000E001000800000000DE
:1022B00001000000100000000024F40000000000F5
:040000050800018965
:00000001FF
